{"abi":[{"type":"constructor","inputs":[],"stateMutability":"nonpayable"},{"type":"function","name":"cookieJarFactory","inputs":[],"outputs":[{"name":"","type":"address","internalType":"contract CookieJarFactory"}],"stateMutability":"view"},{"type":"function","name":"getAllJars","inputs":[],"outputs":[{"name":"","type":"tuple[]","internalType":"struct CookieJarRegistry.CookieJarInfo[]","components":[{"name":"jarAddress","type":"address","internalType":"address"},{"name":"currency","type":"address","internalType":"address"},{"name":"jarCreator","type":"address","internalType":"address"},{"name":"metadata","type":"string","internalType":"string"},{"name":"registrationTime","type":"uint256","internalType":"uint256"},{"name":"accessType","type":"uint8","internalType":"enum CookieJarLib.AccessType"},{"name":"nftGates","type":"tuple[]","internalType":"struct CookieJarLib.NFTGate[]","components":[{"name":"nftAddress","type":"address","internalType":"address"},{"name":"nftType","type":"uint8","internalType":"enum CookieJarLib.NFTType"}]},{"name":"withdrawalOption","type":"uint8","internalType":"enum CookieJarLib.WithdrawalTypeOptions"},{"name":"fixedAmount","type":"uint256","internalType":"uint256"},{"name":"maxWithdrawal","type":"uint256","internalType":"uint256"},{"name":"withdrawalInterval","type":"uint256","internalType":"uint256"},{"name":"strictPurpose","type":"bool","internalType":"bool"},{"name":"emergencyWithdrawalEnabled","type":"bool","internalType":"bool"},{"name":"oneTimeWithdrawal","type":"bool","internalType":"bool"}]}],"stateMutability":"view"},{"type":"function","name":"getJarByCreatorAddress","inputs":[{"name":"_jarCreator","type":"address","internalType":"address"}],"outputs":[{"name":"","type":"tuple","internalType":"struct CookieJarRegistry.CookieJarInfo","components":[{"name":"jarAddress","type":"address","internalType":"address"},{"name":"currency","type":"address","internalType":"address"},{"name":"jarCreator","type":"address","internalType":"address"},{"name":"metadata","type":"string","internalType":"string"},{"name":"registrationTime","type":"uint256","internalType":"uint256"},{"name":"accessType","type":"uint8","internalType":"enum CookieJarLib.AccessType"},{"name":"nftGates","type":"tuple[]","internalType":"struct CookieJarLib.NFTGate[]","components":[{"name":"nftAddress","type":"address","internalType":"address"},{"name":"nftType","type":"uint8","internalType":"enum CookieJarLib.NFTType"}]},{"name":"withdrawalOption","type":"uint8","internalType":"enum CookieJarLib.WithdrawalTypeOptions"},{"name":"fixedAmount","type":"uint256","internalType":"uint256"},{"name":"maxWithdrawal","type":"uint256","internalType":"uint256"},{"name":"withdrawalInterval","type":"uint256","internalType":"uint256"},{"name":"strictPurpose","type":"bool","internalType":"bool"},{"name":"emergencyWithdrawalEnabled","type":"bool","internalType":"bool"},{"name":"oneTimeWithdrawal","type":"bool","internalType":"bool"}]}],"stateMutability":"view"},{"type":"function","name":"getRegisteredCookieJarsCount","inputs":[],"outputs":[{"name":"","type":"uint256","internalType":"uint256"}],"stateMutability":"view"},{"type":"function","name":"jarCreatorToJar","inputs":[{"name":"","type":"address","internalType":"address"}],"outputs":[{"name":"jarAddress","type":"address","internalType":"address"},{"name":"currency","type":"address","internalType":"address"},{"name":"jarCreator","type":"address","internalType":"address"},{"name":"metadata","type":"string","internalType":"string"},{"name":"registrationTime","type":"uint256","internalType":"uint256"},{"name":"accessType","type":"uint8","internalType":"enum CookieJarLib.AccessType"},{"name":"withdrawalOption","type":"uint8","internalType":"enum CookieJarLib.WithdrawalTypeOptions"},{"name":"fixedAmount","type":"uint256","internalType":"uint256"},{"name":"maxWithdrawal","type":"uint256","internalType":"uint256"},{"name":"withdrawalInterval","type":"uint256","internalType":"uint256"},{"name":"strictPurpose","type":"bool","internalType":"bool"},{"name":"emergencyWithdrawalEnabled","type":"bool","internalType":"bool"},{"name":"oneTimeWithdrawal","type":"bool","internalType":"bool"}],"stateMutability":"view"},{"type":"function","name":"registerAndStoreCookieJar","inputs":[{"name":"_jarInstance","type":"address","internalType":"contract CookieJar"},{"name":"_metadata","type":"string","internalType":"string"}],"outputs":[],"stateMutability":"nonpayable"},{"type":"function","name":"registeredCookieJars","inputs":[{"name":"","type":"uint256","internalType":"uint256"}],"outputs":[{"name":"jarAddress","type":"address","internalType":"address"},{"name":"currency","type":"address","internalType":"address"},{"name":"jarCreator","type":"address","internalType":"address"},{"name":"metadata","type":"string","internalType":"string"},{"name":"registrationTime","type":"uint256","internalType":"uint256"},{"name":"accessType","type":"uint8","internalType":"enum CookieJarLib.AccessType"},{"name":"withdrawalOption","type":"uint8","internalType":"enum CookieJarLib.WithdrawalTypeOptions"},{"name":"fixedAmount","type":"uint256","internalType":"uint256"},{"name":"maxWithdrawal","type":"uint256","internalType":"uint256"},{"name":"withdrawalInterval","type":"uint256","internalType":"uint256"},{"name":"strictPurpose","type":"bool","internalType":"bool"},{"name":"emergencyWithdrawalEnabled","type":"bool","internalType":"bool"},{"name":"oneTimeWithdrawal","type":"bool","internalType":"bool"}],"stateMutability":"view"},{"type":"function","name":"setCookieJarFactory","inputs":[{"name":"_factory","type":"address","internalType":"address"}],"outputs":[],"stateMutability":"nonpayable"},{"type":"event","name":"CookieJarFactorySet","inputs":[{"name":"factory","type":"address","indexed":false,"internalType":"address"}],"anonymous":false},{"type":"event","name":"CookieJarRegistered","inputs":[{"name":"jarInstance","type":"address","indexed":false,"internalType":"contract CookieJar"}],"anonymous":false},{"type":"event","name":"GlobalBlacklistUpdated","inputs":[{"name":"user","type":"address","indexed":true,"internalType":"address"},{"name":"status","type":"bool","indexed":false,"internalType":"bool"}],"anonymous":false},{"type":"event","name":"GlobalWhitelistUpdated","inputs":[{"name":"user","type":"address","indexed":true,"internalType":"address"},{"name":"status","type":"bool","indexed":false,"internalType":"bool"}],"anonymous":false},{"type":"error","name":"CookieJarRegistry__FactoryAlreadySet","inputs":[]},{"type":"error","name":"CookieJarRegistry__NotOwner","inputs":[]},{"type":"error","name":"CookieJarRegistry__NotValidJarAddress","inputs":[]},{"type":"error","name":"CookieJarRegistry__OnlyFactoryCanCall","inputs":[]}],"bytecode":{"object":"0x608080604052346015576112c4908161001a8239f35b5f80fdfe60806040526004361015610011575f80fd5b5f3560e01c806311820e46146109d957806317426031146109585780632dbaf2081461093b578063359f02d21461091457806373e5ec94146108af578063d7db76801461080b578063ec6fce401461012c5763f522d83714610071575f80fd5b34610128576020366003190112610128576004356001600160a01b03811690819003610128575f6101a06040516100a781610c7c565b8281528260208201528260408201526060808201528260808201528260a0820152606060c08201528260e0820152826101008201528261012082015282610140820152826101608201528261018082015201525f52600260205261012461011060405f20610e3a565b604051918291602083526020830190610b01565b0390f35b5f80fd5b34610128576040366003190112610128576004356001600160a01b038116908190036101285760243567ffffffffffffffff8111610128573660238201121561012857806004013567ffffffffffffffff8111610512576040519161019b601f8301601f191660200184610c99565b818352366024838301011161012857815f9260246020930183860137830101525f546001600160a01b031633036107fc5781156107ed5760405163e5a6b10f60e01b815290602082600481865afa9182156104f4575f926107b1575b506040516304fb4ffb60e51b8152602081600481875afa9081156104f4575f91610777575b50604051635aaf60c560e11b815291602083600481885afa9283156104f4575f9361073a575b5060405163aadefb1360e01b8152925f84600481895afa9384156104f4575f9461066f575b50604051633257bccb60e01b81526020816004818a5afa9081156104f4575f91610634575b506040516001622cb52b60e01b031981526020816004818b5afa9081156104f4575f91610602575b50604051638c0ff5b760e01b8152916020836004818c5afa9283156104f4575f936105ce575b506040516317861b8760e11b8152966020886004818d5afa9485156104f4575f95610599575b604051633df37c0b60e01b815298506020896004818e5afa9687156104f4576004995f98610578575b50604051633ff2747760e11b8152996020908b90818f5afa9889156104f45760049a5f9a610557575b5060208d6040519c8d809263055b532760e21b82525afa9a8b156104f4575f9b610526575b506040519b6103858d610c7c565b8d8d526001600160a01b0390811660208e01521660408c015260608b01524260808b01526103b281610ae3565b60a08a015260c08901526103c581610ae3565b60e08801526101008701526101208601526101408501521515610160840152151561018083015215156101a0820152600154600160401b811015610512578060016104139201600155610df2565b6104ff578161042191610fb5565b6040516304fb4ffb60e51b8152602081600481865afa9081156104f4575f9161048e575b7f06e4f0f39f0e0153d75ca0176c18426b9e918f856a0d0e13ad5adb9ef6e046cb602085610485868660018060a01b03165f526002845260405f20610fb5565b604051908152a1005b9290506020833d6020116104ec575b816104aa60209383610c99565b81010312610128576104856020926104e27f06e4f0f39f0e0153d75ca0176c18426b9e918f856a0d0e13ad5adb9ef6e046cb95610f89565b9294509250610445565b3d915061049d565b6040513d5f823e3d90fd5b634e487b7160e01b5f525f60045260245ffd5b634e487b7160e01b5f52604160045260245ffd5b610549919b5060203d602011610550575b6105418183610c99565b810190610f9d565b998d610377565b503d610537565b610571919a5060203d602011610550576105418183610c99565b988d610352565b61059291985060203d602011610550576105418183610c99565b968c610329565b94506020883d6020116105c6575b816105b460209383610c99565b81010312610128576004975194610300565b3d91506105a7565b9092506020813d6020116105fa575b816105ea60209383610c99565b81010312610128575191896102da565b3d91506105dd565b90506020813d60201161062c575b8161061d60209383610c99565b810103126101285751886102b4565b3d9150610610565b90506020813d602011610667575b8161064f60209383610c99565b8101031261012857516002811015610128578761028c565b3d9150610642565b9093503d805f833e6106818183610c99565b8101906020818303126101285780519067ffffffffffffffff8211610128570181601f82011215610128578051906106b882610e22565b926106c66040519485610c99565b82845260208085019360061b8301019181831161012857602001925b8284106106f457505050509286610267565b604084830312610128576040519061070b82610c60565b61071485610f89565b8252602085015190600382101561012857826020928360409501528152019301926106e2565b9092506020813d60201161076f575b8161075660209383610c99565b8101031261012857516002811015610128579185610242565b3d9150610749565b90506020813d6020116107a9575b8161079260209383610c99565b81010312610128576107a390610f89565b8461021c565b3d9150610785565b9091506020813d6020116107e5575b816107cd60209383610c99565b81010312610128576107de90610f89565b90836101f7565b3d91506107c0565b63c35852af60e01b5f5260045ffd5b6359dd06b960e01b5f5260045ffd5b34610128576020366003190112610128576004356001548110156101285761083290610df2565b508054600182015460028301546001600160a01b03918216939082169261012492169061086160038201610cbb565b9460048201549160ff60058201541660ff600783015416600883015490600984015492600b600a860154950154966040519b8c9b8c9860ff8b60101c169b60ff808d60081c169c169a610d5b565b34610128576020366003190112610128576004356001600160a01b03811690819003610128575f90815260026020819052604090912080546001820154928201546001600160a01b039384169390811692610124929091169061086160038201610cbb565b34610128575f366003190112610128575f546040516001600160a01b039091168152602090f35b34610128575f366003190112610128576020600154604051908152f35b34610128576020366003190112610128576004356001600160a01b03811690819003610128575f546001600160a01b0381166109ca576001600160a01b03191681175f556040519081527ff6f699cfd128f0bda3be4852652524c8422f74001143a96304d88bb98e83875290602090a1005b634642c39160e01b5f5260045ffd5b34610128575f366003190112610128576001546109f581610e22565b90610a036040519283610c99565b80825260208201908160015f527fb10e2d527612073b26eecdfd717e6a320cf44b4afac2b0732d9fcbe2b7fa0cf65f915b838310610aa157848660405191829160208301906020845251809152604083019060408160051b85010192915f905b828210610a7257505050500390f35b91936001919395506020610a918192603f198a82030186528851610b01565b9601920192018594939192610a63565b600c6020600192610ab185610e3a565b815201920192019190610a34565b805180835260209291819084018484015e5f828201840152601f01601f1916010190565b60021115610aed57565b634e487b7160e01b5f52602160045260245ffd5b80516001600160a01b039081168352602080830151821690840152604080830151909116908301526060808201516101c0918401829052919291610b4791830190610abf565b916080810151608083015260a0810151610b6081610ae3565b60a083015260c08101519282810360c0840152602080855192838152019401905f905b808210610bef575050506101a08160e082930151610ba081610ae3565b60e0850152610100810151610100850152610120810151610120850152610140810151610140850152610160810151151561016085015261018081015115156101808501520151151591015290565b825180516001600160a01b03168752602001519295919290916003821015610aed57604081600193602080940152019601920190610b83565b90600182811c92168015610c56575b6020831014610c4257565b634e487b7160e01b5f52602260045260245ffd5b91607f1691610c37565b6040810190811067ffffffffffffffff82111761051257604052565b6101c0810190811067ffffffffffffffff82111761051257604052565b90601f8019910116810190811067ffffffffffffffff82111761051257604052565b9060405191825f825492610cce84610c28565b8084529360018116908115610d395750600114610cf5575b50610cf392500383610c99565b565b90505f9291925260205f20905f915b818310610d1d575050906020610cf3928201015f610ce6565b6020919350806001915483858901015201910190918492610d04565b905060209250610cf394915060ff191682840152151560051b8201015f610ce6565b9b9895928c6101809c99969f9e9b989592610da89460209160018060a01b0316835260018060a01b031691015260018060a01b031660408d01526101a060608d01526101a08c0190610abf565b9b60808b0152610db781610ae3565b60a08a0152610dc581610ae3565b60c089015260e0880152610100870152610120860152151561014085015215156101608401521515910152565b600154811015610e0e5760015f52600c60205f20910201905f90565b634e487b7160e01b5f52603260045260245ffd5b67ffffffffffffffff81116105125760051b60200190565b90604051610e4781610c7c565b82546001600160a01b0390811682526001840154811660208301526002840154166040820152918290610e7c60038201610cbb565b60608301526004810154608083015260ff600582015416610e9c81610ae3565b60a083015260068101805490610eb182610e22565b91610ebf6040519384610c99565b80835260208301915f5260205f20915f905b828210610f465750505050600b6101a09260ff9260c086015282600782015416610efa81610ae3565b60e086015260088101546101008601526009810154610120860152600a81015461014086015201548181161515610160850152818160081c16151561018085015260101c161515910152565b604051610f5281610c60565b84546001600160a01b038116825260a01c60ff166003811015610aed57600192826020928386950152815201940191019092610ed1565b51906001600160a01b038216820361012857565b90816020910312610128575180151581036101285790565b815181546001600160a01b039182166001600160a01b03199182161783556020840151600184018054918416918316919091179055604084015160028401805491909316911617905560608201518051600383019167ffffffffffffffff82116105125781906110258454610c28565b601f811161123e575b50602090601f83116001146111db575f926111d0575b50508160011b915f199060031b1c19161790555b608082015160048201556005810160a083015161107481610ae3565b61107d81610ae3565b60ff801983541691161790556006810160c0830151805190600160401b82116105125782548284558083106111aa575b50602001915f5260205f205f925b82841061114f5750505050806007600b920160e08401516110db81610ae3565b6110e481610ae3565b60ff8019835416911617905561010083015160088201556101208301516009820155610140830151600a8201550190610160810151151590825460ff62ff00006101a061ff00610180860151151560081b16940151151560101b1693169062ffffff19161717179055565b8051805183546001600160a01b0319166001600160a01b039190911617835560200151906003821015610aed57825460ff60a01b191660a09290921b60ff60a01b1691909117825560019384019391909101906020016110bb565b835f528260205f2091820191015b8181106111c557506110ad565b5f81556001016111b8565b015190505f80611044565b5f8581528281209350601f198516905b818110611226575090846001959493921061120e575b505050811b019055611058565b01515f1960f88460031b161c191690555f8080611201565b929360206001819287860151815501950193016111eb565b909150835f5260205f20601f840160051c81019160208510611284575b90601f859493920160051c01905b818110611276575061102e565b5f8155849350600101611269565b909150819061125b56fea2646970667358221220f8d7a5d9ae4f9470db070a4c4c5571b737682c11583f1ecb6dd082b5481646a564736f6c634300081c0033","linkReferences":{}},"methodIdentifiers":{"cookieJarFactory()":"359f02d2","getAllJars()":"11820e46","getJarByCreatorAddress(address)":"f522d837","getRegisteredCookieJarsCount()":"2dbaf208","jarCreatorToJar(address)":"73e5ec94","registerAndStoreCookieJar(address,string)":"ec6fce40","registeredCookieJars(uint256)":"d7db7680","setCookieJarFactory(address)":"17426031"},"id":59}