{"abi":[{"type":"function","name":"JAR_BLACKLISTED","inputs":[],"outputs":[{"name":"","type":"bytes32","internalType":"bytes32"}],"stateMutability":"view"},{"type":"function","name":"JAR_OWNER","inputs":[],"outputs":[{"name":"","type":"bytes32","internalType":"bytes32"}],"stateMutability":"view"},{"type":"function","name":"JAR_WHITELISTED","inputs":[],"outputs":[{"name":"","type":"bytes32","internalType":"bytes32"}],"stateMutability":"view"},{"type":"event","name":"AdminUpdated","inputs":[{"name":"newAdmin","type":"address","indexed":true,"internalType":"address"}],"anonymous":false},{"type":"event","name":"BlacklistUpdated","inputs":[{"name":"users","type":"address[]","indexed":false,"internalType":"address[]"},{"name":"statuses","type":"bool","indexed":false,"internalType":"bool"}],"anonymous":false},{"type":"event","name":"Deposit","inputs":[{"name":"sender","type":"address","indexed":true,"internalType":"address"},{"name":"amount","type":"uint256","indexed":false,"internalType":"uint256"},{"name":"token","type":"address","indexed":false,"internalType":"address"}],"anonymous":false},{"type":"event","name":"EmergencyWithdrawal","inputs":[{"name":"admin","type":"address","indexed":true,"internalType":"address"},{"name":"token","type":"address","indexed":false,"internalType":"address"},{"name":"amount","type":"uint256","indexed":false,"internalType":"uint256"}],"anonymous":false},{"type":"event","name":"FeeCollectorUpdated","inputs":[{"name":"oldFeeCollector","type":"address","indexed":true,"internalType":"address"},{"name":"newFeeCollector","type":"address","indexed":true,"internalType":"address"}],"anonymous":false},{"type":"event","name":"NFTGateAdded","inputs":[{"name":"nftAddress","type":"address","indexed":false,"internalType":"address"},{"name":"nftType","type":"uint8","indexed":false,"internalType":"uint8"}],"anonymous":false},{"type":"event","name":"NFTGateRemoved","inputs":[{"name":"nftAddress","type":"address","indexed":false,"internalType":"address"}],"anonymous":false},{"type":"event","name":"WhitelistUpdated","inputs":[{"name":"users","type":"address[]","indexed":false,"internalType":"address[]"},{"name":"statuses","type":"bool","indexed":false,"internalType":"bool"}],"anonymous":false},{"type":"event","name":"Withdrawal","inputs":[{"name":"recipient","type":"address","indexed":true,"internalType":"address"},{"name":"amount","type":"uint256","indexed":false,"internalType":"uint256"},{"name":"purpose","type":"string","indexed":false,"internalType":"string"},{"name":"token","type":"address","indexed":false,"internalType":"address"}],"anonymous":false},{"type":"error","name":"AdminCannotBeZeroAddress","inputs":[]},{"type":"error","name":"Blacklisted","inputs":[]},{"type":"error","name":"CookieJar__CurrencyNotApproved","inputs":[]},{"type":"error","name":"CookieJar__WithdrawalAlreadyDone","inputs":[]},{"type":"error","name":"DuplicateNFTGate","inputs":[]},{"type":"error","name":"EmergencyWithdrawalDisabled","inputs":[]},{"type":"error","name":"FeeCollectorAddressCannotBeZeroAddress","inputs":[]},{"type":"error","name":"FeeTransferFailed","inputs":[]},{"type":"error","name":"InsufficientBalance","inputs":[]},{"type":"error","name":"InvalidAccessType","inputs":[]},{"type":"error","name":"InvalidNFTGate","inputs":[]},{"type":"error","name":"InvalidNFTType","inputs":[]},{"type":"error","name":"InvalidPurpose","inputs":[]},{"type":"error","name":"InvalidTokenAddress","inputs":[]},{"type":"error","name":"LessThanMinimumDeposit","inputs":[]},{"type":"error","name":"MaxNFTGatesReached","inputs":[]},{"type":"error","name":"MismatchedArrayLengths","inputs":[]},{"type":"error","name":"NFTArrayLengthMismatch","inputs":[]},{"type":"error","name":"NFTGateNotFound","inputs":[]},{"type":"error","name":"NoNFTAddressesProvided","inputs":[]},{"type":"error","name":"NotAdmin","inputs":[]},{"type":"error","name":"NotAuthorized","inputs":[]},{"type":"error","name":"NotFeeCollector","inputs":[]},{"type":"error","name":"WithdrawalAmountNotAllowed","inputs":[{"name":"requested","type":"uint256","internalType":"uint256"},{"name":"allowed","type":"uint256","internalType":"uint256"}]},{"type":"error","name":"WithdrawalTooSoon","inputs":[{"name":"nextAllowed","type":"uint256","internalType":"uint256"}]},{"type":"error","name":"ZeroWithdrawal","inputs":[]}],"bytecode":{"object":"0x6080806040523460195761010d908161001e823930815050f35b5f80fdfe60808060405260043610156011575f80fd5b5f3560e01c908163087f46e01460a5575080632776ff2914607157633bde45db146039575f80fd5b5f366003190112606d5760206040517f77704612882198e3ac0238f0fab8a9d57f6d9acd339a0cabc0bd31fd4505208d8152f35b5f80fd5b5f366003190112606d5760206040517f8744fd769f7e4919b23a4f6346ba1102c8817522fa5fd4cfa46b96b499c14fb78152f35b5f366003190112606d57807ff4c05651b21c0b5115a86aea17b8d2ecec6e23e9d6dc086e2b8c9c8e4cd7fefd60209252f3fea2646970667358221220cbc0f7bede0c6e571633fbedb4081858436ac8d7bbcdefc60e414b0a328b190d64736f6c634300081c0033","linkReferences":{}},"methodIdentifiers":{"JAR_BLACKLISTED()":"2776ff29","JAR_OWNER()":"087f46e0","JAR_WHITELISTED()":"3bde45db"},"id":61}