{"abi":[{"type":"constructor","inputs":[],"stateMutability":"nonpayable"},{"type":"function","name":"balanceOf","inputs":[{"name":"account","type":"address","internalType":"address"},{"name":"id","type":"uint256","internalType":"uint256"}],"outputs":[{"name":"","type":"uint256","internalType":"uint256"}],"stateMutability":"view"},{"type":"function","name":"balanceOfBatch","inputs":[{"name":"accounts","type":"address[]","internalType":"address[]"},{"name":"ids","type":"uint256[]","internalType":"uint256[]"}],"outputs":[{"name":"","type":"uint256[]","internalType":"uint256[]"}],"stateMutability":"view"},{"type":"function","name":"isApprovedForAll","inputs":[{"name":"account","type":"address","internalType":"address"},{"name":"operator","type":"address","internalType":"address"}],"outputs":[{"name":"","type":"bool","internalType":"bool"}],"stateMutability":"view"},{"type":"function","name":"mint","inputs":[{"name":"account","type":"address","internalType":"address"},{"name":"id","type":"uint256","internalType":"uint256"},{"name":"amount","type":"uint256","internalType":"uint256"},{"name":"data","type":"bytes","internalType":"bytes"}],"outputs":[],"stateMutability":"nonpayable"},{"type":"function","name":"mintBatch","inputs":[{"name":"to","type":"address","internalType":"address"},{"name":"ids","type":"uint256[]","internalType":"uint256[]"},{"name":"amounts","type":"uint256[]","internalType":"uint256[]"},{"name":"data","type":"bytes","internalType":"bytes"}],"outputs":[],"stateMutability":"nonpayable"},{"type":"function","name":"owner","inputs":[],"outputs":[{"name":"","type":"address","internalType":"address"}],"stateMutability":"view"},{"type":"function","name":"renounceOwnership","inputs":[],"outputs":[],"stateMutability":"nonpayable"},{"type":"function","name":"safeBatchTransferFrom","inputs":[{"name":"from","type":"address","internalType":"address"},{"name":"to","type":"address","internalType":"address"},{"name":"ids","type":"uint256[]","internalType":"uint256[]"},{"name":"values","type":"uint256[]","internalType":"uint256[]"},{"name":"data","type":"bytes","internalType":"bytes"}],"outputs":[],"stateMutability":"nonpayable"},{"type":"function","name":"safeTransferFrom","inputs":[{"name":"from","type":"address","internalType":"address"},{"name":"to","type":"address","internalType":"address"},{"name":"id","type":"uint256","internalType":"uint256"},{"name":"value","type":"uint256","internalType":"uint256"},{"name":"data","type":"bytes","internalType":"bytes"}],"outputs":[],"stateMutability":"nonpayable"},{"type":"function","name":"setApprovalForAll","inputs":[{"name":"operator","type":"address","internalType":"address"},{"name":"approved","type":"bool","internalType":"bool"}],"outputs":[],"stateMutability":"nonpayable"},{"type":"function","name":"setURI","inputs":[{"name":"newuri","type":"string","internalType":"string"}],"outputs":[],"stateMutability":"nonpayable"},{"type":"function","name":"supportsInterface","inputs":[{"name":"interfaceId","type":"bytes4","internalType":"bytes4"}],"outputs":[{"name":"","type":"bool","internalType":"bool"}],"stateMutability":"view"},{"type":"function","name":"transferOwnership","inputs":[{"name":"newOwner","type":"address","internalType":"address"}],"outputs":[],"stateMutability":"nonpayable"},{"type":"function","name":"uri","inputs":[{"name":"","type":"uint256","internalType":"uint256"}],"outputs":[{"name":"","type":"string","internalType":"string"}],"stateMutability":"view"},{"type":"event","name":"ApprovalForAll","inputs":[{"name":"account","type":"address","indexed":true,"internalType":"address"},{"name":"operator","type":"address","indexed":true,"internalType":"address"},{"name":"approved","type":"bool","indexed":false,"internalType":"bool"}],"anonymous":false},{"type":"event","name":"OwnershipTransferred","inputs":[{"name":"previousOwner","type":"address","indexed":true,"internalType":"address"},{"name":"newOwner","type":"address","indexed":true,"internalType":"address"}],"anonymous":false},{"type":"event","name":"TransferBatch","inputs":[{"name":"operator","type":"address","indexed":true,"internalType":"address"},{"name":"from","type":"address","indexed":true,"internalType":"address"},{"name":"to","type":"address","indexed":true,"internalType":"address"},{"name":"ids","type":"uint256[]","indexed":false,"internalType":"uint256[]"},{"name":"values","type":"uint256[]","indexed":false,"internalType":"uint256[]"}],"anonymous":false},{"type":"event","name":"TransferSingle","inputs":[{"name":"operator","type":"address","indexed":true,"internalType":"address"},{"name":"from","type":"address","indexed":true,"internalType":"address"},{"name":"to","type":"address","indexed":true,"internalType":"address"},{"name":"id","type":"uint256","indexed":false,"internalType":"uint256"},{"name":"value","type":"uint256","indexed":false,"internalType":"uint256"}],"anonymous":false},{"type":"event","name":"URI","inputs":[{"name":"value","type":"string","indexed":false,"internalType":"string"},{"name":"id","type":"uint256","indexed":true,"internalType":"uint256"}],"anonymous":false},{"type":"error","name":"ERC1155InsufficientBalance","inputs":[{"name":"sender","type":"address","internalType":"address"},{"name":"balance","type":"uint256","internalType":"uint256"},{"name":"needed","type":"uint256","internalType":"uint256"},{"name":"tokenId","type":"uint256","internalType":"uint256"}]},{"type":"error","name":"ERC1155InvalidApprover","inputs":[{"name":"approver","type":"address","internalType":"address"}]},{"type":"error","name":"ERC1155InvalidArrayLength","inputs":[{"name":"idsLength","type":"uint256","internalType":"uint256"},{"name":"valuesLength","type":"uint256","internalType":"uint256"}]},{"type":"error","name":"ERC1155InvalidOperator","inputs":[{"name":"operator","type":"address","internalType":"address"}]},{"type":"error","name":"ERC1155InvalidReceiver","inputs":[{"name":"receiver","type":"address","internalType":"address"}]},{"type":"error","name":"ERC1155InvalidSender","inputs":[{"name":"sender","type":"address","internalType":"address"}]},{"type":"error","name":"ERC1155MissingApprovalForAll","inputs":[{"name":"operator","type":"address","internalType":"address"},{"name":"owner","type":"address","internalType":"address"}]},{"type":"error","name":"OwnableInvalidOwner","inputs":[{"name":"owner","type":"address","internalType":"address"}]},{"type":"error","name":"OwnableUnauthorizedAccount","inputs":[{"name":"account","type":"address","internalType":"address"}]}],"bytecode":{"object":"0x6080604052346100a35761005d602060405161001c6040826100bb565b60128152017168747470733a2f2f64756d6d792e7572692f60701b815261004c61004760025461030b565b610343565b516001600160701b03191660241790565b600255331561008f5761006f336102c3565b61008061007a6100fe565b33610112565b60405161133690816106a48239f35b631e4fbdf760e01b5f90815260045260245ffd5b5f80fd5b634e487b7160e01b5f52604160045260245ffd5b601f909101601f19168101906001600160401b038211908210176100de57604052565b6100a7565b6001600160401b0381116100de57601f01601f191660200190565b6040519061010d6020836100bb565b5f8252565b6003549192916001600160a01b031633036102b0576001600160a01b03811691821561029d57604051936001855260208501905f825260408601600181526060870190600182526080880160405287518151908181036102885750505f5b88518110156101c9578060019160051b8a016101c16101b98a6101a460606020860151950151945f525f60205260405f2090565b9060018060a01b03165f5260205260405f2090565b918254610394565b905501610170565b509194939690929560018251145f1461024d575f87517fc3d58168c5ae7397731d063d5bbf3d657854427343f4c083240f7aacaa2d0f62610220875160405191829133958360209093929193604081019481520152565b0390a45b805160010361023f57505061023d935190519133610605565b565b91509161023d9450336104d6565b5f6040517f4a39dc06d4c0dbc64b70af90fd698a233a518aa5d07e595d983b8c0526c8f7fb3391806102808888836103e8565b0390a4610224565b635b05999160e01b5f5260045260245260445ffd5b632bfa23e760e11b5f525f60045260245ffd5b63118cdaa760e01b5f523360045260245ffd5b600380546001600160a01b039283166001600160a01b0319821681179092559091167f8be0079c531659141344cd1fd0a4f28419497f9722a3daafe3b4186f6b6457e05f80a3565b90600182811c92168015610339575b602083101461032557565b634e487b7160e01b5f52602260045260245ffd5b91607f169161031a565b601f811161034e5750565b60025f52601f0160051c7f405787fa12a823e0f2b7631cc41b3ba8828b3321ca811111fa75cd3aa3bb5ace908101905b818110610389575050565b5f815560010161037e565b919082018092116103a157565b634e487b7160e01b5f52601160045260245ffd5b90602080835192838152019201905f5b8181106103d25750505090565b82518452602093840193909201916001016103c5565b90916103ff61040d936040845260408401906103b5565b9160208184039101526103b5565b90565b908160209103126100a357516001600160e01b0319811681036100a35790565b805180835260209291819084018484015e5f828201840152601f01601f1916010190565b6001600160a01b0391821681529116602082015260a06040820181905261040d9491939192610499929161048b91908601906103b5565b9084820360608601526103b5565b916080818403910152610430565b3d156104d1573d906104b8826100e3565b916104c660405193846100bb565b82523d5f602084013e565b606090565b939093929192843b6104ea575b5050505050565b61050d5f92602094604051968795869563bc197c8160e01b875260048701610454565b03815f6001600160a01b0387165af15f918161059b575b5061055e57506105326104a7565b805191908261055757632bfa23e760e11b5f526001600160a01b03821660045260245ffd5b9050602001fd5b6001600160e01b0319166343e6837f60e01b0161058057505f808080806104e3565b632bfa23e760e11b5f526001600160a01b031660045260245ffd5b6105be91925060203d6020116105c5575b6105b681836100bb565b810190610410565b905f610524565b503d6105ac565b6001600160a01b039182168152911660208201526040810191909152606081019190915260a06080820181905261040d92910190610430565b939093929192843b610618575050505050565b61063b5f92602094604051968795869563f23a6e6160e01b8752600487016105cc565b03815f6001600160a01b0387165af15f9181610682575b5061066057506105326104a7565b6001600160e01b031916630dc5919f60e01b0161058057505f808080806104e3565b61069c91925060203d6020116105c5576105b681836100bb565b905f61065256fe60806040526004361015610011575f80fd5b5f3560e01c8062fdd58e146100f357806301ffc9a7146100ee57806302fe5305146100e95780630e89341c146100e45780631f7fdffa146100df5780632eb2c2d6146100da5780634e1273f4146100d5578063715018a6146100d0578063731133e9146100cb5780638da5cb5b146100c6578063a22cb465146100c1578063e985e9c5146100bc578063f242432a146100b75763f2fde38b146100b2575f80fd5b610aa0565b6109ad565b610951565b61089b565b610873565b6107eb565b610790565b6106d1565b610603565b610557565b6103ed565b61028f565b610196565b61013c565b600435906001600160a01b038216820361010e57565b5f80fd5b602435906001600160a01b038216820361010e57565b35906001600160a01b038216820361010e57565b3461010e57604036600319011261010e57602061017b61015a6100f8565b6024355f525f835260405f209060018060a01b03165f5260205260405f2090565b54604051908152f35b6001600160e01b031981160361010e57565b3461010e57602036600319011261010e5760206004356101b581610184565b63ffffffff60e01b16636cdb3d1360e11b81149081156101f3575b81156101e2575b506040519015158152f35b6301ffc9a760e01b1490505f6101d7565b6303a24d0760e21b811491506101d0565b634e487b7160e01b5f52604160045260245ffd5b90601f801991011681019081106001600160401b0382111761023957604052565b610204565b6001600160401b03811161023957601f01601f191660200190565b9291926102658261023e565b916102736040519384610218565b82948184528183011161010e578281602093845f960137010152565b3461010e57602036600319011261010e576004356001600160401b03811161010e573660238201121561010e576102d0903690602481600401359101610259565b6102d8610c98565b80516001600160401b038111610239576102fc816102f7600254610b26565b610cbf565b602091601f821160011461033a5761032a925f918361032f575b50508160011b915f199060031b1c19161790565b600255005b015190505f80610316565b60025f52601f198216927f405787fa12a823e0f2b7631cc41b3ba8828b3321ca811111fa75cd3aa3bb5ace915f5b85811061039d57508360019510610385575b505050811b01600255005b01515f1960f88460031b161c191690555f808061037a565b91926020600181928685015181550194019201610368565b805180835260209291819084018484015e5f828201840152601f01601f1916010190565b9060206103ea9281815201906103b5565b90565b3461010e57602036600319011261010e576040515f60025461040e81610b26565b80845290600181169081156104a45750600114610446575b6104428361043681850382610218565b604051918291826103d9565b0390f35b91905060025f527f405787fa12a823e0f2b7631cc41b3ba8828b3321ca811111fa75cd3aa3bb5ace915f905b80821061048a57509091508101602001610436610426565b919260018160209254838588010152019101909291610472565b60ff191660208086019190915291151560051b840190910191506104369050610426565b6001600160401b0381116102395760051b60200190565b9080601f8301121561010e5781356104f6816104c8565b926105046040519485610218565b81845260208085019260051b82010192831161010e57602001905b82821061052c5750505090565b813581526020918201910161051f565b9080601f8301121561010e578160206103ea93359101610259565b3461010e57608036600319011261010e576105706100f8565b6024356001600160401b03811161010e5761058f9036906004016104df565b6044356001600160401b03811161010e576105ae9036906004016104df565b6064356001600160401b03811161010e576105cd90369060040161053c565b916105d6610c98565b6001600160a01b038416156105f0576105ee93610d0f565b005b632bfa23e760e11b5f525f60045260245ffd5b3461010e5760a036600319011261010e5761061c6100f8565b610624610112565b906044356001600160401b03811161010e576106449036906004016104df565b6064356001600160401b03811161010e576106639036906004016104df565b90608435936001600160401b03851161010e576106876105ee95369060040161053c565b93610b5e565b90602080835192838152019201905f5b8181106106aa5750505090565b825184526020938401939092019160010161069d565b9060206103ea92818152019061068d565b3461010e57604036600319011261010e576004356001600160401b03811161010e573660238201121561010e5780600401359061070d826104c8565b9161071b6040519384610218565b8083526024602084019160051b8301019136831161010e57602401905b82821061077857836024356001600160401b03811161010e576104429161076661076c9236906004016104df565b90610be4565b604051918291826106c0565b6020809161078584610128565b815201910190610738565b3461010e575f36600319011261010e576107a8610c98565b600380546001600160a01b031981169091555f906001600160a01b03167f8be0079c531659141344cd1fd0a4f28419497f9722a3daafe3b4186f6b6457e08280a3005b3461010e57608036600319011261010e576108046100f8565b602435604435916064356001600160401b03811161010e5761082a90369060040161053c565b91610833610c98565b6001600160a01b038216156105f0576105ee9361086d60405192600184526020840152604083019160018352606084015260808301604052565b91610d0f565b3461010e575f36600319011261010e576003546040516001600160a01b039091168152602090f35b3461010e57604036600319011261010e576108b46100f8565b60243580151580820361010e576001600160a01b03831692831561093f57335f9081526001602090815260408083206001600160a01b039094168352929052209060ff801983541691161790557f17307eab39ab6107e8899845ad3d59bd9653f200f220920489ca2b5937696c316040518061093a339482919091602081019215159052565b0390a3005b62ced3e160e81b5f525f60045260245ffd5b3461010e57604036600319011261010e57602060ff6109a16109716100f8565b610979610112565b6001600160a01b039182165f9081526001865260408082209290931681526020919091522090565b54166040519015158152f35b3461010e5760a036600319011261010e576109c66100f8565b6109ce610112565b60443590606435926084356001600160401b03811161010e576109f590369060040161053c565b926001600160a01b0382163381141580610a7d575b610a67576001600160a01b038416156105f05715610a55576105ee94610a4d60405192600184526020840152604083019160018352606084015260808301604052565b929091610e80565b626a0d4560e21b5f525f60045260245ffd5b63711bec9160e11b5f523360045260245260445ffd5b505f81815260016020908152604080832033845290915290205460ff1615610a0a565b3461010e57602036600319011261010e57610ab96100f8565b610ac1610c98565b6001600160a01b03168015610b1357600380546001600160a01b0319811683179091556001600160a01b03167f8be0079c531659141344cd1fd0a4f28419497f9722a3daafe3b4186f6b6457e05f80a3005b631e4fbdf760e01b5f525f60045260245ffd5b90600182811c92168015610b54575b6020831014610b4057565b634e487b7160e01b5f52602260045260245ffd5b91607f1691610b35565b939291906001600160a01b0385163381141580610b99575b610a67576001600160a01b038216156105f05715610a5557610b9794610e80565b565b505f81815260016020908152604080832033845290915290205460ff1615610b76565b8051821015610bd05760209160051b010190565b634e487b7160e01b5f52603260045260245ffd5b91909180518351808203610c83575050805190610c00826104c8565b91610c0e6040519384610218565b808352610c1d601f19916104c8565b013660208401375f5b8151811015610c7c5780610c6b60019260051b60208082870101519189010151905f918252602082815260408084206001600160a01b03909316845291905290205490565b610c758286610bbc565b5201610c26565b5090925050565b635b05999160e01b5f5260045260245260445ffd5b6003546001600160a01b03163303610cac57565b63118cdaa760e01b5f523360045260245ffd5b601f8111610ccb575050565b60025f5260205f20906020601f840160051c83019310610d05575b601f0160051c01905b818110610cfa575050565b5f8155600101610cef565b9091508190610ce6565b939291908051825190818103610e6b5750506001600160a01b03851693841515935f5b8351811015610d9f5780868960019360051b602080828a010151918a01015192610d60575b50505001610d32565b610d9591610d78610d8d925f525f60205260405f2090565b9060018060a01b03165f5260205260405f2090565b918254611056565b90555f8981610d57565b509390959460018351145f14610e30576020838101518582015160408051928352928201525f9133917fc3d58168c5ae7397731d063d5bbf3d657854427343f4c083240f7aacaa2d0f629190a45b610df8575b50505050565b8051600103610e205790602080610e1795930151910151915f33611262565b5f808080610df2565b610e2b935f33611133565b610e17565b5f6040517f4a39dc06d4c0dbc64b70af90fd698a233a518aa5d07e595d983b8c0526c8f7fb339180610e63898983611077565b0390a4610ded565b635b05999160e01b5f5260045260245260445ffd5b9493929091938451825190818103610e6b5750506001600160a01b038681169586151595918516801515939192905f5b8451811015610f89578060051b90898988602080868b010151958c01015192610f08575b93600194610ee6575b50505001610eb0565b610efe91610d78610d8d925f525f60205260405f2090565b90555f8981610edd565b50509091610f218d610d78835f525f60205260405f2090565b54828110610f52578291898f610f49600197968f950391610d78855f525f60205260405f2090565b55909450610ed4565b6040516303dee4c560e01b81526001600160a01b038f16600482015260248101919091526044810183905260648101829052608490fd5b5091989593929790965060018851145f1461101c5760208881015186820151604080519283529282015233917fc3d58168c5ae7397731d063d5bbf3d657854427343f4c083240f7aacaa2d0f6291a45b610fe5575b5050505050565b845160010361100b576020806110019601519201519233611262565b5f80808080610fde565b61101794919233611133565b611001565b6040517f4a39dc06d4c0dbc64b70af90fd698a233a518aa5d07e595d983b8c0526c8f7fb33918061104e898d83611077565b0390a4610fd9565b9190820180921161106357565b634e487b7160e01b5f52601160045260245ffd5b909161108e6103ea9360408452604084019061068d565b91602081840391015261068d565b9081602091031261010e57516103ea81610184565b6001600160a01b0391821681529116602082015260a0604082018190526103ea94919391926110f692916110e8919086019061068d565b90848203606086015261068d565b9160808184039101526103b5565b3d1561112e573d906111158261023e565b916111236040519384610218565b82523d5f602084013e565b606090565b9091949293853b611147575b505050505050565b60209361116991604051968795869563bc197c8160e01b8752600487016110b1565b03815f6001600160a01b0387165af15f91816111f8575b506111ba575061118e611104565b80519190826111b357632bfa23e760e11b5f526001600160a01b03821660045260245ffd5b9050602001fd5b6001600160e01b0319166343e6837f60e01b016111dd57505f808080808061113f565b632bfa23e760e11b5f526001600160a01b031660045260245ffd5b61121b91925060203d602011611222575b6112138183610218565b81019061109c565b905f611180565b503d611209565b6001600160a01b039182168152911660208201526040810191909152606081019190915260a0608082018190526103ea929101906103b5565b9091949293853b61127557505050505050565b60209361129791604051968795869563f23a6e6160e01b875260048701611229565b03815f6001600160a01b0387165af15f91816112df575b506112bc575061118e611104565b6001600160e01b031916630dc5919f60e01b016111dd57505f808080808061113f565b6112f991925060203d602011611222576112138183610218565b905f6112ae56fea2646970667358221220f7bf9e267f2aeaaa7253fbf05d3cd7dcabe0e69cbbde5d3b79746027bbd8756064736f6c634300081c0033","linkReferences":{}},"methodIdentifiers":{"balanceOf(address,uint256)":"00fdd58e","balanceOfBatch(address[],uint256[])":"4e1273f4","isApprovedForAll(address,address)":"e985e9c5","mint(address,uint256,uint256,bytes)":"731133e9","mintBatch(address,uint256[],uint256[],bytes)":"1f7fdffa","owner()":"8da5cb5b","renounceOwnership()":"715018a6","safeBatchTransferFrom(address,address,uint256[],uint256[],bytes)":"2eb2c2d6","safeTransferFrom(address,address,uint256,uint256,bytes)":"f242432a","setApprovalForAll(address,bool)":"a22cb465","setURI(string)":"02fe5305","supportsInterface(bytes4)":"01ffc9a7","transferOwnership(address)":"f2fde38b","uri(uint256)":"0e89341c"},"id":62}