{"abi":[{"type":"constructor","inputs":[],"stateMutability":"nonpayable"},{"type":"function","name":"approve","inputs":[{"name":"to","type":"address","internalType":"address"},{"name":"tokenId","type":"uint256","internalType":"uint256"}],"outputs":[],"stateMutability":"nonpayable"},{"type":"function","name":"balanceOf","inputs":[{"name":"owner","type":"address","internalType":"address"}],"outputs":[{"name":"","type":"uint256","internalType":"uint256"}],"stateMutability":"view"},{"type":"function","name":"getApproved","inputs":[{"name":"tokenId","type":"uint256","internalType":"uint256"}],"outputs":[{"name":"","type":"address","internalType":"address"}],"stateMutability":"view"},{"type":"function","name":"isApprovedForAll","inputs":[{"name":"owner","type":"address","internalType":"address"},{"name":"operator","type":"address","internalType":"address"}],"outputs":[{"name":"","type":"bool","internalType":"bool"}],"stateMutability":"view"},{"type":"function","name":"name","inputs":[],"outputs":[{"name":"","type":"string","internalType":"string"}],"stateMutability":"view"},{"type":"function","name":"owner","inputs":[],"outputs":[{"name":"","type":"address","internalType":"address"}],"stateMutability":"view"},{"type":"function","name":"ownerOf","inputs":[{"name":"tokenId","type":"uint256","internalType":"uint256"}],"outputs":[{"name":"","type":"address","internalType":"address"}],"stateMutability":"view"},{"type":"function","name":"renounceOwnership","inputs":[],"outputs":[],"stateMutability":"nonpayable"},{"type":"function","name":"safeMint","inputs":[{"name":"to","type":"address","internalType":"address"}],"outputs":[{"name":"","type":"uint256","internalType":"uint256"}],"stateMutability":"nonpayable"},{"type":"function","name":"safeTransferFrom","inputs":[{"name":"from","type":"address","internalType":"address"},{"name":"to","type":"address","internalType":"address"},{"name":"tokenId","type":"uint256","internalType":"uint256"}],"outputs":[],"stateMutability":"nonpayable"},{"type":"function","name":"safeTransferFrom","inputs":[{"name":"from","type":"address","internalType":"address"},{"name":"to","type":"address","internalType":"address"},{"name":"tokenId","type":"uint256","internalType":"uint256"},{"name":"data","type":"bytes","internalType":"bytes"}],"outputs":[],"stateMutability":"nonpayable"},{"type":"function","name":"setApprovalForAll","inputs":[{"name":"operator","type":"address","internalType":"address"},{"name":"approved","type":"bool","internalType":"bool"}],"outputs":[],"stateMutability":"nonpayable"},{"type":"function","name":"supportsInterface","inputs":[{"name":"interfaceId","type":"bytes4","internalType":"bytes4"}],"outputs":[{"name":"","type":"bool","internalType":"bool"}],"stateMutability":"view"},{"type":"function","name":"symbol","inputs":[],"outputs":[{"name":"","type":"string","internalType":"string"}],"stateMutability":"view"},{"type":"function","name":"tokenURI","inputs":[{"name":"tokenId","type":"uint256","internalType":"uint256"}],"outputs":[{"name":"","type":"string","internalType":"string"}],"stateMutability":"view"},{"type":"function","name":"transferFrom","inputs":[{"name":"from","type":"address","internalType":"address"},{"name":"to","type":"address","internalType":"address"},{"name":"tokenId","type":"uint256","internalType":"uint256"}],"outputs":[],"stateMutability":"nonpayable"},{"type":"function","name":"transferOwnership","inputs":[{"name":"newOwner","type":"address","internalType":"address"}],"outputs":[],"stateMutability":"nonpayable"},{"type":"event","name":"Approval","inputs":[{"name":"owner","type":"address","indexed":true,"internalType":"address"},{"name":"approved","type":"address","indexed":true,"internalType":"address"},{"name":"tokenId","type":"uint256","indexed":true,"internalType":"uint256"}],"anonymous":false},{"type":"event","name":"ApprovalForAll","inputs":[{"name":"owner","type":"address","indexed":true,"internalType":"address"},{"name":"operator","type":"address","indexed":true,"internalType":"address"},{"name":"approved","type":"bool","indexed":false,"internalType":"bool"}],"anonymous":false},{"type":"event","name":"OwnershipTransferred","inputs":[{"name":"previousOwner","type":"address","indexed":true,"internalType":"address"},{"name":"newOwner","type":"address","indexed":true,"internalType":"address"}],"anonymous":false},{"type":"event","name":"Transfer","inputs":[{"name":"from","type":"address","indexed":true,"internalType":"address"},{"name":"to","type":"address","indexed":true,"internalType":"address"},{"name":"tokenId","type":"uint256","indexed":true,"internalType":"uint256"}],"anonymous":false},{"type":"error","name":"ERC721IncorrectOwner","inputs":[{"name":"sender","type":"address","internalType":"address"},{"name":"tokenId","type":"uint256","internalType":"uint256"},{"name":"owner","type":"address","internalType":"address"}]},{"type":"error","name":"ERC721InsufficientApproval","inputs":[{"name":"operator","type":"address","internalType":"address"},{"name":"tokenId","type":"uint256","internalType":"uint256"}]},{"type":"error","name":"ERC721InvalidApprover","inputs":[{"name":"approver","type":"address","internalType":"address"}]},{"type":"error","name":"ERC721InvalidOperator","inputs":[{"name":"operator","type":"address","internalType":"address"}]},{"type":"error","name":"ERC721InvalidOwner","inputs":[{"name":"owner","type":"address","internalType":"address"}]},{"type":"error","name":"ERC721InvalidReceiver","inputs":[{"name":"receiver","type":"address","internalType":"address"}]},{"type":"error","name":"ERC721InvalidSender","inputs":[{"name":"sender","type":"address","internalType":"address"}]},{"type":"error","name":"ERC721NonexistentToken","inputs":[{"name":"tokenId","type":"uint256","internalType":"uint256"}]},{"type":"error","name":"OwnableInvalidOwner","inputs":[{"name":"owner","type":"address","internalType":"address"}]},{"type":"error","name":"OwnableUnauthorizedAccount","inputs":[{"name":"account","type":"address","internalType":"address"}]}],"bytecode":{"object":"0x60806040523461033f5760408051906100188183610578565b600482526315195cdd60e21b60208301528051906100368183610578565b60038252624d544b60e81b602083015282516001600160401b0381116102b4575f54600181811c9116801561056e575b602082101461048257601f811161050c575b506020601f82116001146104ab57819293945f926104a0575b50508160011b915f199060031b1c1916175f555b81516001600160401b0381116102b457600154600181811c91168015610496575b602082101461048257601f811161041f575b50602092601f82116001146103be57928192935f926103b3575b50508160011b915f199060031b1c1916176001555b33156103a05760068054336001600160a01b0319821681179092556001600160a01b03167f8be0079c531659141344cd1fd0a4f28419497f9722a3daafe3b4186f6b6457e05f80a3600754905f19821461038c576001820160075560209181516101718482610578565b5f80825282815260028552839020546001600160a01b0316918215158061035d575b335f81815260038852868120805460010190558381526002885286812080546001600160a01b031916831790558651958492917fddf252ad1be2c89b69c2b068fc378daa952ba7f163c4a11628f55a4df523b3ef9080a461034a57333b610203575b8351610e64908161059c8239f35b60a4838680948294630a85bd0160e11b84523360048501525f60248501526044840152608060648401528051918291826084860152018484015e5f838284010152601f801991011681010301815f335af15f9181610306575b506102d057503d156102c8573d6001600160401b0381116102b45790519061028d601f8201601f1916840183610578565b81523d5f8383013e5b805191826102b157633250574960e11b5f523360045260245ffd5b01fd5b634e487b7160e01b5f52604160045260245ffd5b506060610296565b9091506001600160e01b03191663757a42ff60e11b016102f357805f80806101f5565b633250574960e11b5f523360045260245ffd5b9091508381813d8311610343575b61031e8183610578565b8101031261033f57516001600160e01b03198116810361033f57905f61025c565b5f80fd5b503d610314565b6339e3563760e11b5f525f60045260245ffd5b5f8281526004875285812080546001600160a01b03191690558481526003875285902080545f19019055610193565b634e487b7160e01b5f52601160045260245ffd5b631e4fbdf760e01b5f525f60045260245ffd5b015190505f806100f2565b601f1982169360015f52805f20915f5b86811061040757508360019596106103ef575b505050811b01600155610107565b01515f1960f88460031b161c191690555f80806103e1565b919260206001819286850151815501940192016103ce565b60015f527fb10e2d527612073b26eecdfd717e6a320cf44b4afac2b0732d9fcbe2b7fa0cf6601f830160051c81019160208410610478575b601f0160051c01905b81811061046d57506100d8565b5f8155600101610460565b9091508190610457565b634e487b7160e01b5f52602260045260245ffd5b90607f16906100c6565b015190505f80610091565b601f198216905f8052805f20915f5b8181106104f4575095836001959697106104dc575b505050811b015f556100a5565b01515f1960f88460031b161c191690555f80806104cf565b9192602060018192868b0151815501940192016104ba565b5f80527f290decd9548b62a8d60345a988386fc84ba6bc95484008f6362f93160ef3e563601f830160051c81019160208410610564575b601f0160051c01905b8181106105595750610078565b5f815560010161054c565b9091508190610543565b90607f1690610066565b601f909101601f19168101906001600160401b038211908210176102b45760405256fe6080806040526004361015610012575f80fd5b5f905f3560e01c90816301ffc9a7146109db5750806306fdde0314610923578063081812fc146108e7578063095ea7b3146107fd57806323b872dd146107e657806340d097c31461058557806342842e0e146105565780636352211e1461052657806370a08231146104d5578063715018a61461047a5780638da5cb5b1461045257806395d89b411461034a578063a22cb465146102af578063b88d4fde14610219578063c87b56dd146101bc578063e985e9c5146101645763f2fde38b146100d9575f80fd5b34610161576020366003190112610161576100f2610a6a565b6100fa610ce3565b6001600160a01b0316801561014d57600680546001600160a01b0319811683179091556001600160a01b03167f8be0079c531659141344cd1fd0a4f28419497f9722a3daafe3b4186f6b6457e05f80a380f35b631e4fbdf760e01b82526004829052602482fd5b80fd5b5034610161576040366003190112610161576040610180610a6a565b91610189610a80565b9260018060a01b031681526005602052209060018060a01b03165f52602052602060ff60405f2054166040519015158152f35b34610215576020366003190112610215576101d8600435610caf565b505f6040516101e8602082610ad0565b526102116040516101fa602082610ad0565b5f8152604051918291602083526020830190610a46565b0390f35b5f80fd5b3461021557608036600319011261021557610232610a6a565b61023a610a80565b906044356064359267ffffffffffffffff841161021557366023850112156102155783600401359261026b84610b06565b936102796040519586610ad0565b8085523660248288010111610215576020815f9260246102ad990183890137860101526102a7838383610b22565b33610d0a565b005b34610215576040366003190112610215576102c8610a6a565b60243590811515809203610215576001600160a01b031690811561033757335f52600560205260405f20825f5260205260405f2060ff1981541660ff83161790556040519081527f17307eab39ab6107e8899845ad3d59bd9653f200f220920489ca2b5937696c3160203392a3005b50630b61174360e31b5f5260045260245ffd5b34610215575f366003190112610215576040515f6001548060011c90600181168015610448575b6020831081146104345782855290811561041057506001146103b2575b6102118361039e81850382610ad0565b604051918291602083526020830190610a46565b91905060015f527fb10e2d527612073b26eecdfd717e6a320cf44b4afac2b0732d9fcbe2b7fa0cf6915f905b8082106103f65750909150810160200161039e61038e565b9192600181602092548385880101520191019092916103de565b60ff191660208086019190915291151560051b8401909101915061039e905061038e565b634e487b7160e01b5f52602260045260245ffd5b91607f1691610371565b34610215575f366003190112610215576006546040516001600160a01b039091168152602090f35b34610215575f36600319011261021557610492610ce3565b600680546001600160a01b031981169091555f906001600160a01b03167f8be0079c531659141344cd1fd0a4f28419497f9722a3daafe3b4186f6b6457e08280a3005b34610215576020366003190112610215576001600160a01b036104f6610a6a565b168015610513575f526003602052602060405f2054604051908152f35b6322718ad960e21b5f525f60045260245ffd5b34610215576020366003190112610215576020610544600435610caf565b6040516001600160a01b039091168152f35b34610215576102ad61056736610a96565b9060405192610577602085610ad0565b5f84526102a7838383610b22565b346102155760203660031901126102155761059e610a6a565b6105a6610ce3565b6007545f1981146107d257600181016007556020906040516105c88382610ad0565b5f81526001600160a01b0384169384156107bf575f8381526002855260409020546001600160a01b0316801515908161078e575b865f526003865260405f2060018154019055845f526002865260405f20876bffffffffffffffffffffffff60a01b8254161790558487827fddf252ad1be2c89b69c2b068fc378daa952ba7f163c4a11628f55a4df523b3ef5f80a45061077b573b61066b575b50604051908152f35b826106a49160405180938192630a85bd0160e11b83523360048401525f6024840152866044840152608060648401526084830190610a46565b03815f885af15f918161073b575b506107055750503d156106fe573d6106c981610b06565b906106d76040519283610ad0565b81523d5f8383013e5b805191826106fb5783633250574960e11b5f5260045260245ffd5b01fd5b60606106e0565b919290916001600160e01b03191663757a42ff60e11b016107295750819083610662565b633250574960e11b5f5260045260245ffd5b9091508381813d8311610774575b6107538183610ad0565b8101031261021557516001600160e01b0319811681036102155790856106b2565b503d610749565b6339e3563760e11b5f525f60045260245ffd5b5f8581526004602052604080822080546001600160a01b031916905582825260038852902080545f190190556105fc565b633250574960e11b5f525f60045260245ffd5b634e487b7160e01b5f52601160045260245ffd5b34610215576102ad6107f736610a96565b91610b22565b3461021557604036600319011261021557610816610a6a565b60243561082281610caf565b331515806108d4575b806108a7575b6108945781906001600160a01b0384811691167f8c5be1e5ebec7d5bd14f71427d1e84f3dd0314c0f7b2291e5b200ac8c7c3b9255f80a45f90815260046020526040902080546001600160a01b0319166001600160a01b03909216919091179055005b63a9fbf51f60e01b5f523360045260245ffd5b506001600160a01b0381165f90815260056020908152604080832033845290915290205460ff1615610831565b506001600160a01b03811633141561082b565b346102155760203660031901126102155760043561090481610caf565b505f526004602052602060018060a01b0360405f205416604051908152f35b34610215575f366003190112610215576040515f5f548060011c906001811680156109d1575b602083108114610434578285529081156104105750600114610975576102118361039e81850382610ad0565b5f8080527f290decd9548b62a8d60345a988386fc84ba6bc95484008f6362f93160ef3e563939250905b8082106109b75750909150810160200161039e61038e565b91926001816020925483858801015201910190929161099f565b91607f1691610949565b34610215576020366003190112610215576004359063ffffffff60e01b8216809203610215576020916380ac58cd60e01b8114908115610a35575b8115610a24575b5015158152f35b6301ffc9a760e01b14905083610a1d565b635b5e139f60e01b81149150610a16565b805180835260209291819084018484015e5f828201840152601f01601f1916010190565b600435906001600160a01b038216820361021557565b602435906001600160a01b038216820361021557565b6060906003190112610215576004356001600160a01b038116810361021557906024356001600160a01b0381168103610215579060443590565b90601f8019910116810190811067ffffffffffffffff821117610af257604052565b634e487b7160e01b5f52604160045260245ffd5b67ffffffffffffffff8111610af257601f01601f191660200190565b6001600160a01b03909116919082156107bf575f828152600260205260409020546001600160a01b031692829033151580610c1a575b5084610be7575b805f52600360205260405f2060018154019055815f52600260205260405f20816bffffffffffffffffffffffff60a01b825416179055847fddf252ad1be2c89b69c2b068fc378daa952ba7f163c4a11628f55a4df523b3ef5f80a46001600160a01b0316808303610bcf57505050565b6364283d7b60e01b5f5260045260245260445260645ffd5b5f82815260046020526040902080546001600160a01b0319169055845f52600360205260405f205f198154019055610b5f565b90915080610c5e575b15610c305782905f610b58565b8284610c4857637e27328960e01b5f5260045260245ffd5b63177e802f60e01b5f523360045260245260445ffd5b503384148015610c8d575b80610c2357505f838152600460205260409020546001600160a01b03163314610c23565b505f84815260056020908152604080832033845290915290205460ff16610c69565b5f818152600260205260409020546001600160a01b0316908115610cd1575090565b637e27328960e01b5f5260045260245ffd5b6006546001600160a01b03163303610cf757565b63118cdaa760e01b5f523360045260245ffd5b823b610d18575b5050505050565b604051630a85bd0160e11b81526001600160a01b039182166004820152918116602483015260448201939093526080606482015291169160209082908190610d64906084830190610a46565b03815f865af15f9181610de9575b50610dc757503d15610dc0573d610d8881610b06565b90610d966040519283610ad0565b81523d5f602083013e5b80519081610dbb5782633250574960e11b5f5260045260245ffd5b602001fd5b6060610da0565b6001600160e01b03191663757a42ff60e11b0161072957505f80808080610d11565b9091506020813d602011610e26575b81610e0560209383610ad0565b8101031261021557516001600160e01b03198116810361021557905f610d72565b3d9150610df856fea2646970667358221220bc6894d0bd614fb01a607f0583c5e942f9dca4b2bd88c211da410aa2573bd33464736f6c634300081c0033","linkReferences":{}},"methodIdentifiers":{"approve(address,uint256)":"095ea7b3","balanceOf(address)":"70a08231","getApproved(uint256)":"081812fc","isApprovedForAll(address,address)":"e985e9c5","name()":"06fdde03","owner()":"8da5cb5b","ownerOf(uint256)":"6352211e","renounceOwnership()":"715018a6","safeMint(address)":"40d097c3","safeTransferFrom(address,address,uint256)":"42842e0e","safeTransferFrom(address,address,uint256,bytes)":"b88d4fde","setApprovalForAll(address,bool)":"a22cb465","supportsInterface(bytes4)":"01ffc9a7","symbol()":"95d89b41","tokenURI(uint256)":"c87b56dd","transferFrom(address,address,uint256)":"23b872dd","transferOwnership(address)":"f2fde38b"},"id":64}