{"abi":[{"type":"constructor","inputs":[{"name":"_jarOwner","type":"address","internalType":"address"},{"name":"_supportedCurrency","type":"address","internalType":"address"},{"name":"_accessType","type":"uint8","internalType":"enum CookieJarLib.AccessType"},{"name":"_nftAddresses","type":"address[]","internalType":"address[]"},{"name":"_nftTypes","type":"uint8[]","internalType":"uint8[]"},{"name":"_withdrawalOption","type":"uint8","internalType":"enum CookieJarLib.WithdrawalTypeOptions"},{"name":"_fixedAmount","type":"uint256","internalType":"uint256"},{"name":"_maxWithdrawal","type":"uint256","internalType":"uint256"},{"name":"_withdrawalInterval","type":"uint256","internalType":"uint256"},{"name":"_minETHDeposit","type":"uint256","internalType":"uint256"},{"name":"_minERC20Deposit","type":"uint256","internalType":"uint256"},{"name":"_feePercentageOnDeposit","type":"uint256","internalType":"uint256"},{"name":"_strictPurpose","type":"bool","internalType":"bool"},{"name":"_defaultFeeCollector","type":"address","internalType":"address"},{"name":"_emergencyWithdrawalEnabled","type":"bool","internalType":"bool"},{"name":"_oneTimeWithdrawal","type":"bool","internalType":"bool"}],"stateMutability":"nonpayable"},{"type":"fallback","stateMutability":"payable"},{"type":"receive","stateMutability":"payable"},{"type":"function","name":"DEFAULT_ADMIN_ROLE","inputs":[],"outputs":[{"name":"","type":"bytes32","internalType":"bytes32"}],"stateMutability":"view"},{"type":"function","name":"accessType","inputs":[],"outputs":[{"name":"","type":"uint8","internalType":"enum CookieJarLib.AccessType"}],"stateMutability":"view"},{"type":"function","name":"addNFTGate","inputs":[{"name":"_nftAddress","type":"address","internalType":"address"},{"name":"_nftType","type":"uint8","internalType":"uint8"}],"outputs":[],"stateMutability":"nonpayable"},{"type":"function","name":"currency","inputs":[],"outputs":[{"name":"","type":"address","internalType":"address"}],"stateMutability":"view"},{"type":"function","name":"currencyHeldByJar","inputs":[],"outputs":[{"name":"","type":"uint256","internalType":"uint256"}],"stateMutability":"view"},{"type":"function","name":"depositCurrency","inputs":[{"name":"amount","type":"uint256","internalType":"uint256"}],"outputs":[],"stateMutability":"nonpayable"},{"type":"function","name":"depositETH","inputs":[],"outputs":[],"stateMutability":"payable"},{"type":"function","name":"emergencyWithdrawCurrencyWithState","inputs":[{"name":"amount","type":"uint256","internalType":"uint256"}],"outputs":[],"stateMutability":"nonpayable"},{"type":"function","name":"emergencyWithdrawWithoutState","inputs":[{"name":"token","type":"address","internalType":"address"},{"name":"amount","type":"uint256","internalType":"uint256"}],"outputs":[],"stateMutability":"nonpayable"},{"type":"function","name":"emergencyWithdrawalEnabled","inputs":[],"outputs":[{"name":"","type":"bool","internalType":"bool"}],"stateMutability":"view"},{"type":"function","name":"feeCollector","inputs":[],"outputs":[{"name":"","type":"address","internalType":"address"}],"stateMutability":"view"},{"type":"function","name":"feePercentageOnDeposit","inputs":[],"outputs":[{"name":"","type":"uint256","internalType":"uint256"}],"stateMutability":"view"},{"type":"function","name":"fixedAmount","inputs":[],"outputs":[{"name":"","type":"uint256","internalType":"uint256"}],"stateMutability":"view"},{"type":"function","name":"getNFTGatesArray","inputs":[],"outputs":[{"name":"","type":"tuple[]","internalType":"struct CookieJarLib.NFTGate[]","components":[{"name":"nftAddress","type":"address","internalType":"address"},{"name":"nftType","type":"uint8","internalType":"enum CookieJarLib.NFTType"}]}],"stateMutability":"view"},{"type":"function","name":"getRoleAdmin","inputs":[{"name":"role","type":"bytes32","internalType":"bytes32"}],"outputs":[{"name":"","type":"bytes32","internalType":"bytes32"}],"stateMutability":"view"},{"type":"function","name":"getWithdrawalDataArray","inputs":[],"outputs":[{"name":"","type":"tuple[]","internalType":"struct CookieJarLib.WithdrawalData[]","components":[{"name":"amount","type":"uint256","internalType":"uint256"},{"name":"purpose","type":"string","internalType":"string"}]}],"stateMutability":"view"},{"type":"function","name":"grantJarBlacklistRole","inputs":[{"name":"_users","type":"address[]","internalType":"address[]"}],"outputs":[],"stateMutability":"nonpayable"},{"type":"function","name":"grantJarWhitelistRole","inputs":[{"name":"_users","type":"address[]","internalType":"address[]"}],"outputs":[],"stateMutability":"nonpayable"},{"type":"function","name":"grantRole","inputs":[{"name":"role","type":"bytes32","internalType":"bytes32"},{"name":"account","type":"address","internalType":"address"}],"outputs":[],"stateMutability":"nonpayable"},{"type":"function","name":"hasRole","inputs":[{"name":"role","type":"bytes32","internalType":"bytes32"},{"name":"account","type":"address","internalType":"address"}],"outputs":[{"name":"","type":"bool","internalType":"bool"}],"stateMutability":"view"},{"type":"function","name":"isWithdrawnByUser","inputs":[{"name":"","type":"address","internalType":"address"}],"outputs":[{"name":"","type":"bool","internalType":"bool"}],"stateMutability":"view"},{"type":"function","name":"jarOwner","inputs":[],"outputs":[{"name":"","type":"address","internalType":"address"}],"stateMutability":"view"},{"type":"function","name":"lastWithdrawalNFT","inputs":[{"name":"","type":"bytes32","internalType":"bytes32"}],"outputs":[{"name":"","type":"uint256","internalType":"uint256"}],"stateMutability":"view"},{"type":"function","name":"lastWithdrawalWhitelist","inputs":[{"name":"","type":"address","internalType":"address"}],"outputs":[{"name":"","type":"uint256","internalType":"uint256"}],"stateMutability":"view"},{"type":"function","name":"maxWithdrawal","inputs":[],"outputs":[{"name":"","type":"uint256","internalType":"uint256"}],"stateMutability":"view"},{"type":"function","name":"minERC20Deposit","inputs":[],"outputs":[{"name":"","type":"uint256","internalType":"uint256"}],"stateMutability":"view"},{"type":"function","name":"minETHDeposit","inputs":[],"outputs":[{"name":"","type":"uint256","internalType":"uint256"}],"stateMutability":"view"},{"type":"function","name":"nftGates","inputs":[{"name":"","type":"uint256","internalType":"uint256"}],"outputs":[{"name":"nftAddress","type":"address","internalType":"address"},{"name":"nftType","type":"uint8","internalType":"enum CookieJarLib.NFTType"}],"stateMutability":"view"},{"type":"function","name":"oneTimeWithdrawal","inputs":[],"outputs":[{"name":"","type":"bool","internalType":"bool"}],"stateMutability":"view"},{"type":"function","name":"removeNFTGate","inputs":[{"name":"_nftAddress","type":"address","internalType":"address"}],"outputs":[],"stateMutability":"nonpayable"},{"type":"function","name":"renounceRole","inputs":[{"name":"role","type":"bytes32","internalType":"bytes32"},{"name":"callerConfirmation","type":"address","internalType":"address"}],"outputs":[],"stateMutability":"nonpayable"},{"type":"function","name":"revokeJarBlacklistRole","inputs":[{"name":"_users","type":"address[]","internalType":"address[]"}],"outputs":[],"stateMutability":"nonpayable"},{"type":"function","name":"revokeJarWhitelistRole","inputs":[{"name":"_users","type":"address[]","internalType":"address[]"}],"outputs":[],"stateMutability":"nonpayable"},{"type":"function","name":"revokeRole","inputs":[{"name":"role","type":"bytes32","internalType":"bytes32"},{"name":"account","type":"address","internalType":"address"}],"outputs":[],"stateMutability":"nonpayable"},{"type":"function","name":"strictPurpose","inputs":[],"outputs":[{"name":"","type":"bool","internalType":"bool"}],"stateMutability":"view"},{"type":"function","name":"supportsInterface","inputs":[{"name":"interfaceId","type":"bytes4","internalType":"bytes4"}],"outputs":[{"name":"","type":"bool","internalType":"bool"}],"stateMutability":"view"},{"type":"function","name":"transferJarOwnership","inputs":[{"name":"_newAdmin","type":"address","internalType":"address"}],"outputs":[],"stateMutability":"nonpayable"},{"type":"function","name":"updateFeeCollector","inputs":[{"name":"_newFeeCollector","type":"address","internalType":"address"}],"outputs":[],"stateMutability":"nonpayable"},{"type":"function","name":"withdrawNFTMode","inputs":[{"name":"amount","type":"uint256","internalType":"uint256"},{"name":"purpose","type":"string","internalType":"string"},{"name":"gateAddress","type":"address","internalType":"address"},{"name":"tokenId","type":"uint256","internalType":"uint256"}],"outputs":[],"stateMutability":"nonpayable"},{"type":"function","name":"withdrawWhitelistMode","inputs":[{"name":"amount","type":"uint256","internalType":"uint256"},{"name":"purpose","type":"string","internalType":"string"}],"outputs":[],"stateMutability":"nonpayable"},{"type":"function","name":"withdrawalData","inputs":[{"name":"","type":"uint256","internalType":"uint256"}],"outputs":[{"name":"amount","type":"uint256","internalType":"uint256"},{"name":"purpose","type":"string","internalType":"string"}],"stateMutability":"view"},{"type":"function","name":"withdrawalInterval","inputs":[],"outputs":[{"name":"","type":"uint256","internalType":"uint256"}],"stateMutability":"view"},{"type":"function","name":"withdrawalOption","inputs":[],"outputs":[{"name":"","type":"uint8","internalType":"enum CookieJarLib.WithdrawalTypeOptions"}],"stateMutability":"view"},{"type":"event","name":"AdminUpdated","inputs":[{"name":"newAdmin","type":"address","indexed":true,"internalType":"address"}],"anonymous":false},{"type":"event","name":"BlacklistUpdated","inputs":[{"name":"users","type":"address[]","indexed":false,"internalType":"address[]"},{"name":"statuses","type":"bool","indexed":false,"internalType":"bool"}],"anonymous":false},{"type":"event","name":"Deposit","inputs":[{"name":"sender","type":"address","indexed":true,"internalType":"address"},{"name":"amount","type":"uint256","indexed":false,"internalType":"uint256"},{"name":"token","type":"address","indexed":false,"internalType":"address"}],"anonymous":false},{"type":"event","name":"EmergencyWithdrawal","inputs":[{"name":"admin","type":"address","indexed":true,"internalType":"address"},{"name":"token","type":"address","indexed":false,"internalType":"address"},{"name":"amount","type":"uint256","indexed":false,"internalType":"uint256"}],"anonymous":false},{"type":"event","name":"FeeCollectorUpdated","inputs":[{"name":"oldFeeCollector","type":"address","indexed":true,"internalType":"address"},{"name":"newFeeCollector","type":"address","indexed":true,"internalType":"address"}],"anonymous":false},{"type":"event","name":"NFTGateAdded","inputs":[{"name":"nftAddress","type":"address","indexed":false,"internalType":"address"},{"name":"nftType","type":"uint8","indexed":false,"internalType":"uint8"}],"anonymous":false},{"type":"event","name":"NFTGateRemoved","inputs":[{"name":"nftAddress","type":"address","indexed":false,"internalType":"address"}],"anonymous":false},{"type":"event","name":"RoleAdminChanged","inputs":[{"name":"role","type":"bytes32","indexed":true,"internalType":"bytes32"},{"name":"previousAdminRole","type":"bytes32","indexed":true,"internalType":"bytes32"},{"name":"newAdminRole","type":"bytes32","indexed":true,"internalType":"bytes32"}],"anonymous":false},{"type":"event","name":"RoleGranted","inputs":[{"name":"role","type":"bytes32","indexed":true,"internalType":"bytes32"},{"name":"account","type":"address","indexed":true,"internalType":"address"},{"name":"sender","type":"address","indexed":true,"internalType":"address"}],"anonymous":false},{"type":"event","name":"RoleRevoked","inputs":[{"name":"role","type":"bytes32","indexed":true,"internalType":"bytes32"},{"name":"account","type":"address","indexed":true,"internalType":"address"},{"name":"sender","type":"address","indexed":true,"internalType":"address"}],"anonymous":false},{"type":"event","name":"WhitelistUpdated","inputs":[{"name":"users","type":"address[]","indexed":false,"internalType":"address[]"},{"name":"statuses","type":"bool","indexed":false,"internalType":"bool"}],"anonymous":false},{"type":"event","name":"Withdrawal","inputs":[{"name":"recipient","type":"address","indexed":true,"internalType":"address"},{"name":"amount","type":"uint256","indexed":false,"internalType":"uint256"},{"name":"purpose","type":"string","indexed":false,"internalType":"string"},{"name":"token","type":"address","indexed":false,"internalType":"address"}],"anonymous":false},{"type":"error","name":"AccessControlBadConfirmation","inputs":[]},{"type":"error","name":"AccessControlUnauthorizedAccount","inputs":[{"name":"account","type":"address","internalType":"address"},{"name":"neededRole","type":"bytes32","internalType":"bytes32"}]},{"type":"error","name":"AdminCannotBeZeroAddress","inputs":[]},{"type":"error","name":"Blacklisted","inputs":[]},{"type":"error","name":"CookieJar__CurrencyNotApproved","inputs":[]},{"type":"error","name":"CookieJar__WithdrawalAlreadyDone","inputs":[]},{"type":"error","name":"DuplicateNFTGate","inputs":[]},{"type":"error","name":"EmergencyWithdrawalDisabled","inputs":[]},{"type":"error","name":"FeeCollectorAddressCannotBeZeroAddress","inputs":[]},{"type":"error","name":"FeeTransferFailed","inputs":[]},{"type":"error","name":"InsufficientBalance","inputs":[]},{"type":"error","name":"InvalidAccessType","inputs":[]},{"type":"error","name":"InvalidNFTGate","inputs":[]},{"type":"error","name":"InvalidNFTType","inputs":[]},{"type":"error","name":"InvalidPurpose","inputs":[]},{"type":"error","name":"InvalidTokenAddress","inputs":[]},{"type":"error","name":"LessThanMinimumDeposit","inputs":[]},{"type":"error","name":"MaxNFTGatesReached","inputs":[]},{"type":"error","name":"NFTArrayLengthMismatch","inputs":[]},{"type":"error","name":"NFTGateNotFound","inputs":[]},{"type":"error","name":"NoNFTAddressesProvided","inputs":[]},{"type":"error","name":"NotAdmin","inputs":[]},{"type":"error","name":"NotAuthorized","inputs":[]},{"type":"error","name":"NotFeeCollector","inputs":[]},{"type":"error","name":"SafeERC20FailedOperation","inputs":[{"name":"token","type":"address","internalType":"address"}]},{"type":"error","name":"WithdrawalAmountNotAllowed","inputs":[{"name":"requested","type":"uint256","internalType":"uint256"},{"name":"allowed","type":"uint256","internalType":"uint256"}]},{"type":"error","name":"WithdrawalTooSoon","inputs":[{"name":"nextAllowed","type":"uint256","internalType":"uint256"}]},{"type":"error","name":"ZeroWithdrawal","inputs":[]}],"bytecode":{"object":"0x6080604052346105aa57612f9880380380610019816105e0565b928339810190610200818303126105aa5761003381610605565b9061004060208201610605565b9060408101519060028210156105aa5760608101516001600160401b0381116105aa5781019480601f870112156105aa5785519561008561008088610619565b6105e0565b9660208089838152019160051b830101918383116105aa57602001905b8282106105c85750505060808201516001600160401b0381116105aa5782019080601f830112156105aa578151906100dc61008083610619565b9260208085858152019360051b8201019182116105aa57602001915b8183106105ae5750505060a08201519360028510156105aa578260c0879401519160e0820151906101008301519161012084015194610140850151610160860151966101476101808801610630565b9d6101556101a08901610605565b996101706101e06101696101c08c01610630565b9a01610630565b6001600160a01b03909c169c8d1561059b576001600160a01b038c161561058c5760ff8161019f60019361063d565b600954908260a01b9060a01b16908260a01b1916178060095560a01c166101c58161063d565b14610385575b5050926103759d97959260ff95928d9c9b9a98956101eb6009549f61063d565b600655600755600a55600b55600580546001600160a01b0319166001600160a01b0392909216919091179055600c55600d805460089485559490931b610100600160a81b03166001600160b01b03199094169415158216949094179290921792151590911660a890811b9290921790559290921b60ff60a81b16600162ffff0160a01b0319909316179190911790151560b01b60ff60b01b16176009557f77704612882198e3ac0238f0fab8a9d57f6d9acd339a0cabc0bd31fd4505208d5f81815260208190527f733ca340b1c7221ce64b38878e6935f845e9e86b11dbf48dd3381c4deb01d94e80545f516020612f785f395f51905f5291829055909290915f516020612f385f395f51905f529080a47f8744fd769f7e4919b23a4f6346ba1102c8817522fa5fd4cfa46b96b499c14fb75f81815260208190527fefb406cc0bce2ba74458cf504a1d6cc9424b2ff4c841f69cd1cfdcb1e32a8af080545f516020612f785f395f51905f5291829055909290915f516020612f385f395f51905f529080a46106a1565b506040516127fe908161073a8239f35b9b999693909d9e9794919c9a9895928e511561057d578e518d510361056e5760058f511161055f578e9d5f9e8f905b5111156105405760028f8f60ff916103cb91610647565b511611610531578f8f6103e59060018060a01b0392610647565b511615610522578f8f6103ff9060018060a01b0392610647565b51165f908152600360205260409020546001600160a01b0316610513578f9e8f908f60ff610441836001600160a01b036104398288610647565b511693610647565b511660038110156104ff5760408051929083016001600160401b038111848210176104eb576040528252602082015260015490680100000000000000008210156104eb5760018201806001558210156104d7576001936104ac826104ce94875f5260205f200161065b565b6104bc84868060a01b0392610647565b51165f52600360205260405f2061065b565b019e8f906103b4565b634e487b7160e01b5f52603260045260245ffd5b634e487b7160e01b5f52604160045260245ffd5b634e487b7160e01b5f52602160045260245ffd5b63a043029360e01b5f5260045ffd5b639843f01f60e01b5f5260045ffd5b63adc1f5ed60e01b5f5260045ffd5b989f9e509a9c50989a50969894979396929591949093918260ff6101cb565b632bc27e0960e21b5f5260045ffd5b63bce9273f60e01b5f5260045ffd5b630c04a2db60e11b5f5260045ffd5b6326e249c760e01b5f5260045ffd5b6339b3559560e21b5f5260045ffd5b5f80fd5b825160ff811681036105aa578152602092830192016100f8565b602080916105d584610605565b8152019101906100a2565b6040519190601f01601f191682016001600160401b038111838210176104eb57604052565b51906001600160a01b03821682036105aa57565b6001600160401b0381116104eb5760051b60200190565b519081151582036105aa57565b600211156104ff57565b80518210156104d75760209160051b010190565b815181546001600160a01b0319166001600160a01b039190911617815560209091015160038110156104ff57815460ff60a01b191660a09190911b60ff60a01b16179055565b6001600160a01b0381165f9081525f516020612f585f395f51905f52602052604090205460ff16610734576001600160a01b03165f8181525f516020612f585f395f51905f5260205260408120805460ff191660011790553391905f516020612f785f395f51905f52907f2f8788117e7eff1d82e926ec794901d17c78024a50270940304540a733656f0d9080a4600190565b505f9056fe6080806040526004361015610011575b005b5f3560e01c90816301ffc9a714611aae57508063156d4c9c14611a895780631e6d8b10146119e7578063248a9ca3146119b55780632f0c370e146119985780632f2d75a2146118a05780632f2ff15d146118635780633257bccb1461183b57806336568abe146117f75780633657b63c146117da5780633df37c0b146117b85780635b6e245c1461179b57806361ac3e4c1461174b5780636715140f146116275780636812bfe3146115ef5780636ba4573a146115b25780637997ca2c146115955780637c343291146114885780637fe4e8ee1461146357806381fe98a2146112b85780638c0ff5b71461129b5780638dbf15c61461110d57806391d14854146110c5578063937424bf14610f5e5780639b76ea2214610ed25780639f69ff6014610eaa578063a217fddf14610e90578063a24f854714610e66578063aadefb1314610d87578063afad5406146108a7578063b55ec18a1461087b578063b6b86bfb146107ef578063b8f8f425146107d2578063c415b95c146107a6578063d2c35ce8146106fd578063d359cd2d14610648578063d4958b141461058d578063d547741f1461054b578063e5a6b10f14610523578063f6326fb31461047c578063f9304d96146103c8578063fbf6ae6f146102135763ffd34ad5146101f257005b3461020f575f36600319011261020f576020600a54604051908152f35b5f80fd5b3461020f57604036600319011261020f5761022c611b6b565b335f9081525f5160206127295f395f51905f5260205260409020546024359060ff16156103b95760ff600d5460a81c16156103aa57801561039b576001600160a01b038216600381036102e957508047106102da575f80808084335af1610291611e85565b50156102cb57604080516001600160a01b039093168352602083019190915233915f5160206127895f395f51905f5291819081015b0390a2005b634033e4e360e01b5f5260045ffd5b631e9acf1760e31b5f5260045ffd5b6040516370a0823160e01b8152306004820152602081602481855afa80156103905783915f9161035b575b50106102da57816103385f5160206127895f395f51905f52936102c6933390612674565b604080516001600160a01b03909516855260208501919091523393918291820190565b9150506020813d602011610388575b8161037760209383611c6a565b8101031261020f5782905185610314565b3d915061036a565b6040513d5f823e3d90fd5b630318014360e61b5f5260045ffd5b63e0eb7b3360e01b5f5260045ffd5b637bfa4b9f60e01b5f5260045ffd5b3461020f57602036600319011261020f5760043560025481101561020f576002548110156104685760025f5260011b7f405787fa12a823e0f2b7631cc41b3ba8828b3321ca811111fa75cd3aa3bb5ace81015490610447907f405787fa12a823e0f2b7631cc41b3ba8828b3321ca811111fa75cd3aa3bb5acf01611c8c565b906104646040519283928352604060208401526040830190611bf2565b0390f35b634e487b7160e01b5f52603260045260245ffd5b5f36600319011261020f576005546001600160a01b03166002198101610514576006543410610505576104af903461232c565b6104bb81600454611deb565b600455600554604080519283526001600160a01b03909116602083015233917fe31c7b8d08ee7db0afa68782e1028ef92305caeea8626633ad44d413e30f6b2f91819081016102c6565b63663436a560e11b5f5260045ffd5b630f58058360e11b5f5260045ffd5b3461020f575f36600319011261020f576005546040516001600160a01b039091168152602090f35b3461020f57604036600319011261020f5761000f60043561056a611b55565b90610588610583825f525f602052600160405f20015490565b61241c565b612607565b3461020f5761059b36611b01565b335f9081525f5160206127295f395f51905f52602052604090205460ff16156103b95760ff60095460a01c166105d081611b95565b610639575f5b81811061061457507fa091d95aa3f4b3529e12c57e1e9e10580edde8a7ac6fd51dd3c8e824c332dbe09161060f60405192839283611d9e565b0390a1005b8061063261062d6106286001948688611d2c565b611d3c565b612576565b50016105d6565b630c0bf9b160e11b5f5260045ffd5b3461020f57602036600319011261020f57610661611b6b565b335f9081525f5160206127295f395f51905f52602052604090205460ff16156103b9576001600160a01b0381169081156106ee576009546106b591906106af906001600160a01b03166124e5565b50612224565b50600980546001600160a01b031916821790557f54e4612788f90384e6843298d7854436f3a585b2c3831ab66abf1de63bfa6c2d5f80a2005b6339b3559560e21b5f5260045ffd5b3461020f57602036600319011261020f57610716611b6b565b600d54600881901c6001600160a01b03169033829003610797576001600160a01b03831692831561078857610100600160a81b031990911660089190911b610100600160a81b031617600d557f5d16ad41baeb009cd23eb8f6c7cde5c2e0cd5acf4a33926ab488875c37c37f385f80a3005b6326e249c760e01b5f5260045ffd5b6339fe69ff60e11b5f5260045ffd5b3461020f575f36600319011261020f57600d5460405160089190911c6001600160a01b03168152602090f35b3461020f575f36600319011261020f576020600454604051908152f35b3461020f576107fd36611b01565b335f9081525f5160206127295f395f51905f52602052604090205460ff16156103b9575f5b81811061085b57507f11d4d128e8f89ae2e8815168b9eba079dd6668b75f1e3a9dd96ac6192a7c4dcb9161060f60405192839283611d9e565b8061087461086f6106286001948688611d2c565b612454565b5001610822565b3461020f575f36600319011261020f57602060ff60095460a01c16604051906108a381611b95565b8152f35b3461020f57608036600319011261020f5760043560243567ffffffffffffffff811161020f576108db903690600401611bc4565b9091906044356001600160a01b03811680820361020f57335f9081525f5160206127695f395f51905f526020526040902054606435919060ff16610d7857841561039b5760095490600160ff8360a01c1661093581611b95565b03610639578015610d69575f602060405161094f81611c4e565b8281520152335f9081525f5160206127695f395f51905f52602052604090205460ff16610d78575f52600360205261098960405f206120cc565b80516001600160a01b031615610d69576020810180516003811015610d4157158015610d55575b15610cad5750516040516331a9108f60e11b81526004810184905290602090829060249082906001600160a01b03165afa908115610390575f91610c6b575b50336001600160a01b0390911603610c5c575b60ff600d541680610c52575b610c435760b01c60ff16151560011480610c28575b610c19576040519060208201926bffffffffffffffffffffffff199060601b168352603482015260348152610a59605482611c6a565b519020805f52600f602052610a7560405f2054600c5490611deb565b804210610c0757505f52600f6020524260405f205560ff60095460a81c16610a9c81611b95565b610bf757600a54808303610be157505b6005546001600160a01b031660038103610b7d575081600454106102da575f80808085335af1610ada611e85565b50156102da57610b4e92610b44916040517f9ddf9db90ca0b3a635cb652614e08af065c7b77ff1a91b1b16303aca7e004b68339180610b1b85878a84611df8565b0390a25b610b2b84600454611eb4565b60045560405193610b3b85611c4e565b84523691611ec1565b6020820152611ef7565b600160ff60095460b01c16151514610b6257005b335f908152601060205260409020805460ff19166001179055005b909282600454106102da57610b4e93610b9b84610b44943390612674565b60018060a01b03600554167f9ddf9db90ca0b3a635cb652614e08af065c7b77ff1a91b1b16303aca7e004b6860405180610bd9339486888b85611e2c565b0390a2610b1f565b82633f9f9bdf60e01b5f5260045260245260445ffd5b600b54808311610be15750610aac565b63ff56d9bd60e01b5f5260045260245ffd5b633b04b6cd60e11b5f5260045ffd5b50335f526010602052600160ff60405f205416151514610a23565b63af62684f60e01b5f5260045ffd5b5060148410610a0e565b63ea8e4eb560e01b5f5260045ffd5b90506020813d602011610ca5575b81610c8660209383611c6a565b8101031261020f57516001600160a01b038116810361020f57876109ef565b3d9150610c79565b516003811015610d4157600114610cc5575b50610a02565b51604051627eeac760e11b81523360048201526024810184905290602090829060449082906001600160a01b03165afa908115610390575f91610d0f575b5015610c5c5786610cbf565b90506020813d602011610d39575b81610d2a60209383611c6a565b8101031261020f575187610d03565b3d9150610d1d565b634e487b7160e01b5f52602160045260245ffd5b5080516003811015610d41576002146109b0565b639843f01f60e01b5f5260045ffd5b6309550c7760e01b5f5260045ffd5b3461020f575f36600319011261020f57600154610da38161204f565b90610db16040519283611c6a565b80825260208201908160015f527fb10e2d527612073b26eecdfd717e6a320cf44b4afac2b0732d9fcbe2b7fa0cf65f915b838310610e49578486604051918291602083019060208452518091526040830191905f5b818110610e14575050500390f35b9193509160206040600192610e3b838851868060a01b038151168452015184830190611bb7565b019401910191849392610e06565b600160208192610e58856120cc565b815201920192019190610de2565b3461020f57602036600319011261020f576004355f52600f602052602060405f2054604051908152f35b3461020f575f36600319011261020f5760206040515f8152f35b3461020f575f36600319011261020f576009546040516001600160a01b039091168152602090f35b3461020f57610ee036611b01565b335f9081525f5160206127295f395f51905f52602052604090205460ff16156103b9575f5b818110610f3e57507f11d4d128e8f89ae2e8815168b9eba079dd6668b75f1e3a9dd96ac6192a7c4dcb9161060f60405192839283611d50565b80610f57610f526106286001948688611d2c565b612191565b5001610f05565b3461020f57602036600319011261020f57335f9081525f5160206127295f395f51905f5260205260409020546004359060ff16156103b95760ff600d5460a81c16156103aa57801561039b576005546001600160a01b03166003810361101c57508047106102da575f80808084335af1610fd6611e85565b50156102cb57600554604080516001600160a01b03909216825260208201839052611017929133915f5160206127895f395f51905f5291a25b600454611eb4565b600455005b906040516370a0823160e01b8152306004820152602081602481865afa80156103905782915f91611090575b50106102da5761105d81611017933390612674565b600554604080516001600160a01b0390921682526020820183905233915f5160206127895f395f51905f529190a261100f565b9150506020813d6020116110bd575b816110ac60209383611c6a565b8101031261020f5781905184611048565b3d915061109f565b3461020f57604036600319011261020f576110de611b55565b6004355f525f60205260405f209060018060a01b03165f52602052602060ff60405f2054166040519015158152f35b3461020f57604036600319011261020f57611126611b6b565b6024359060ff821680920361020f57335f9081525f5160206127295f395f51905f52602052604090205460ff16156103b957600160ff60095460a01c1661116c81611b95565b036106395760015490600582101561128c576001600160a01b03168015610d69576002831161127d575f818152600360205260409020546001600160a01b031661126e576003831015610d4157604051916111c683611c4e565b8183526111d6846020850161208b565b600160401b81101561125a578060016111f29201600155611b9f565b9390936112475761123a8361122a6040957f8e589a6dee02c831e84f7da4680df7f11e0524780ec0286e0154c73ff75eee7497612097565b835f526003602052845f20612097565b82519182526020820152a1005b634e487b7160e01b5f525f60045260245ffd5b634e487b7160e01b5f52604160045260245ffd5b63a043029360e01b5f5260045ffd5b63adc1f5ed60e01b5f5260045ffd5b632bc27e0960e21b5f5260045ffd5b3461020f575f36600319011261020f576020600b54604051908152f35b3461020f57602036600319011261020f576112d1611b6b565b335f9081525f5160206127295f395f51905f52602052604090205460ff16156103b957600160ff60095460a01c1661130881611b95565b03610639576001546001600160a01b03909116905f19905f5b818110611437575b50505f198114611428575f828152600360205260408120556001545f198101908111611414578082106113bd575b505060015480156113a9575f19019061136f82611b9f565b919091611247577fa3b73c44162e18c7a39174f33d36454e326aac6561e6bcb65746e4ec11179a10925f60209355600155604051908152a1005b634e487b7160e01b5f52603160045260245ffd5b6113c96113d091611b9f565b5091611b9f565b6112475780821461135757815481546001600160a01b0319166001600160a01b0391909116178155905461140d9160a09190911c60ff1690612067565b8180611357565b634e487b7160e01b5f52601160045260245ffd5b636491ce1360e01b5f5260045ffd5b8361144182611b9f565b50546001600160a01b03161461145957600101611321565b9150508280611329565b3461020f575f36600319011261020f57602060ff600d5460a81c166040519015158152f35b3461020f575f36600319011261020f576002546114a48161204f565b906114b26040519283611c6a565b80825260208201908160025f527f405787fa12a823e0f2b7631cc41b3ba8828b3321ca811111fa75cd3aa3bb5ace5f915b83831061156157848660405191829160208301906020845251809152604083019060408160051b85010192915f905b82821061152157505050500390f35b919360019193955060206115518192603f198a82030186526040838a518051845201519181858201520190611bf2565b9601920192018594939192611512565b6002602060019260405161157481611c4e565b85548152611583858701611c8c565b838201528152019201920191906114e3565b3461020f575f36600319011261020f576020600754604051908152f35b3461020f57602036600319011261020f576001600160a01b036115d3611b6b565b165f526010602052602060ff60405f2054166040519015158152f35b3461020f57602036600319011261020f576001600160a01b03611610611b6b565b165f52600e602052602060405f2054604051908152f35b3461020f57604036600319011261020f5760043560243567ffffffffffffffff811161020f5761165b903690600401611bc4565b335f9081525f5160206127695f395f51905f52602052604090205491929160ff16610d7857335f9081525f5160206127a95f395f51905f52602052604090205460ff1615610c5c57811561039b5760095460ff8160a01c166116bc81611b95565b6106395760ff600d541680611741575b610c435760b01c60ff16151560011480611726575b610c1957335f52600e6020526116fe60405f2054600c5490611deb565b804210610c075750335f52600e6020524260405f205560ff60095460a81c16610a9c81611b95565b50335f526010602052600160ff60405f2054161515146116e1565b50601482106116cc565b3461020f57602036600319011261020f5760043560015481101561020f57611774604091611b9f565b505481516001600160a01b03821681529061179990602083019060a01c60ff16611bb7565bf35b3461020f575f36600319011261020f576020600654604051908152f35b3461020f575f36600319011261020f57602060ff600d54166040519015158152f35b3461020f575f36600319011261020f576020600854604051908152f35b3461020f57604036600319011261020f57611810611b55565b336001600160a01b0382160361182c5761000f90600435612607565b63334bd91960e11b5f5260045ffd5b3461020f575f36600319011261020f57602060ff60095460a81c16604051906108a381611b95565b3461020f57604036600319011261020f5761000f600435611882611b55565b9061189b610583825f525f602052600160405f20015490565b6122b7565b3461020f57602036600319011261020f57600435600754811061050557600554604051636eb1769f60e11b81523360048201523060248201526001600160a01b039091169190602081604481865afa80156103905782915f91611963575b5010611954576119426104af92604051906323b872dd60e01b60208301523360248301523060448301528360648301526064825261193d608483611c6a565b6126b0565b6005546001600160a01b03169061232c565b63142dd17f60e31b5f5260045ffd5b9150506020813d602011611990575b8161197f60209383611c6a565b8101031261020f57819051846118fe565b3d9150611972565b3461020f575f36600319011261020f576020600c54604051908152f35b3461020f57602036600319011261020f5760206119df6004355f525f602052600160405f20015490565b604051908152f35b3461020f576119f536611b01565b335f9081525f5160206127295f395f51905f52602052604090205460ff16156103b95760ff60095460a01c16611a2a81611b95565b610639575f5b818110611a6957507fa091d95aa3f4b3529e12c57e1e9e10580edde8a7ac6fd51dd3c8e824c332dbe09161060f60405192839283611d50565b80611a82611a7d6106286001948688611d2c565b6120f9565b5001611a30565b3461020f575f36600319011261020f57602060ff60095460b01c166040519015158152f35b3461020f57602036600319011261020f576004359063ffffffff60e01b821680920361020f57602091637965db0b60e01b8114908115611af0575b5015158152f35b6301ffc9a760e01b14905083611ae9565b90602060031983011261020f5760043567ffffffffffffffff811161020f578260238201121561020f5780600401359267ffffffffffffffff841161020f5760248460051b8301011161020f576024019190565b602435906001600160a01b038216820361020f57565b600435906001600160a01b038216820361020f57565b35906001600160a01b038216820361020f57565b60021115610d4157565b6001548110156104685760015f5260205f2001905f90565b906003821015610d415752565b9181601f8401121561020f5782359167ffffffffffffffff831161020f576020838186019501011161020f57565b805180835260209291819084018484015e5f828201840152601f01601f1916010190565b90600182811c92168015611c44575b6020831014611c3057565b634e487b7160e01b5f52602260045260245ffd5b91607f1691611c25565b6040810190811067ffffffffffffffff82111761125a57604052565b90601f8019910116810190811067ffffffffffffffff82111761125a57604052565b9060405191825f825492611c9f84611c16565b8084529360018116908115611d0a5750600114611cc6575b50611cc492500383611c6a565b565b90505f9291925260205f20905f915b818310611cee575050906020611cc4928201015f611cb7565b6020919350806001915483858901015201910190918492611cd5565b905060209250611cc494915060ff191682840152151560051b8201015f611cb7565b91908110156104685760051b0190565b356001600160a01b038116810361020f5790565b9291806040850160408652526060840191905f5b818110611d78575050506020600191930152565b909192602080600192838060a01b03611d9088611b81565b168152019401929101611d64565b9291806040850160408652526060840191905f5b818110611dc55750505060205f91930152565b909192602080600192838060a01b03611ddd88611b81565b168152019401929101611db2565b9190820180921161141457565b9392806080915f946040948852606060208901528160608901528388013783828288010152601f8019910116850101930152565b9280604093608093979697865260606020870152816060870152838601375f828286010152601f80199101168301019360018060a01b0316910152565b67ffffffffffffffff811161125a57601f01601f191660200190565b3d15611eaf573d90611e9682611e69565b91611ea46040519384611c6a565b82523d5f602084013e565b606090565b9190820391821161141457565b929192611ecd82611e69565b91611edb6040519384611c6a565b82948184528183011161020f578281602093845f960137010152565b90600254600160401b81101561125a57600181016002556002548110156104685760025f5260011b7f405787fa12a823e0f2b7631cc41b3ba8828b3321ca811111fa75cd3aa3bb5ace016001602091845181550192015191825167ffffffffffffffff811161125a57611f6a8254611c16565b601f811161200a575b506020601f8211600114611fac57819293945f92611fa1575b50508160011b915f199060031b1c1916179055565b015190505f80611f8c565b601f19821690835f52805f20915f5b818110611ff257509583600195969710611fda575b505050811b019055565b01515f1960f88460031b161c191690555f8080611fd0565b9192602060018192868b015181550194019201611fbb565b825f5260205f20601f830160051c81019160208410612045575b601f0160051c01905b81811061203a5750611f73565b5f815560010161202d565b9091508190612024565b67ffffffffffffffff811161125a5760051b60200190565b906003811015610d4157815460ff60a01b191660a09190911b60ff60a01b16179055565b6003821015610d415752565b815181546001600160a01b0319166001600160a01b03919091161781556020909101516003811015610d4157611cc491612067565b90611cc46040516120dc81611c4e565b92546001600160a01b038116845260a01c60ff166020840161208b565b6001600160a01b0381165f9081525f5160206127a95f395f51905f52602052604090205460ff1661218c576001600160a01b03165f8181525f5160206127a95f395f51905f5260205260408120805460ff191660011790553391907f77704612882198e3ac0238f0fab8a9d57f6d9acd339a0cabc0bd31fd4505208d905f5160206127095f395f51905f529080a4600190565b505f90565b6001600160a01b0381165f9081525f5160206127695f395f51905f52602052604090205460ff1661218c576001600160a01b03165f8181525f5160206127695f395f51905f5260205260408120805460ff191660011790553391907f8744fd769f7e4919b23a4f6346ba1102c8817522fa5fd4cfa46b96b499c14fb7905f5160206127095f395f51905f529080a4600190565b6001600160a01b0381165f9081525f5160206127295f395f51905f52602052604090205460ff1661218c576001600160a01b03165f8181525f5160206127295f395f51905f5260205260408120805460ff191660011790553391907ff4c05651b21c0b5115a86aea17b8d2ecec6e23e9d6dc086e2b8c9c8e4cd7fefd905f5160206127095f395f51905f529080a4600190565b5f818152602081815260408083206001600160a01b038616845290915290205460ff16612326575f818152602081815260408083206001600160a01b0395909516808452949091528120805460ff19166001179055339291905f5160206127095f395f51905f529080a4600190565b50505f90565b906008548083029083820414831517156114145760649004906001600160a01b0316600303612384575f8080808460018060a01b03600d5460081c165af1612372611e85565b50156102cb5761238191611eb4565b90565b600554600d5460405163a9059cbb60e01b81526001600160a01b0360089290921c821660048201526024810184905291602091839116815f816044810103925af1908115610390575f916123e15750156102cb5761238191611eb4565b90506020813d602011612414575b816123fc60209383611c6a565b8101031261020f5751801515810361020f575f612372565b3d91506123ef565b5f8181526020818152604080832033845290915290205460ff161561243e5750565b63e2517d3f60e01b5f523360045260245260445ffd5b6001600160a01b0381165f9081525f5160206127695f395f51905f52602052604090205460ff161561218c576001600160a01b03165f8181525f5160206127695f395f51905f5260205260408120805460ff191690553391907f8744fd769f7e4919b23a4f6346ba1102c8817522fa5fd4cfa46b96b499c14fb7905f5160206127495f395f51905f529080a4600190565b6001600160a01b0381165f9081525f5160206127295f395f51905f52602052604090205460ff161561218c576001600160a01b03165f8181525f5160206127295f395f51905f5260205260408120805460ff191690553391907ff4c05651b21c0b5115a86aea17b8d2ecec6e23e9d6dc086e2b8c9c8e4cd7fefd905f5160206127495f395f51905f529080a4600190565b6001600160a01b0381165f9081525f5160206127a95f395f51905f52602052604090205460ff161561218c576001600160a01b03165f8181525f5160206127a95f395f51905f5260205260408120805460ff191690553391907f77704612882198e3ac0238f0fab8a9d57f6d9acd339a0cabc0bd31fd4505208d905f5160206127495f395f51905f529080a4600190565b5f818152602081815260408083206001600160a01b038616845290915290205460ff1615612326575f818152602081815260408083206001600160a01b0395909516808452949091528120805460ff19169055339291905f5160206127495f395f51905f529080a4600190565b60405163a9059cbb60e01b60208201526001600160a01b03929092166024830152604480830193909352918152611cc49161193d606483611c6a565b905f602091828151910182855af115610390575f513d6126ff57506001600160a01b0381163b155b6126df5750565b635274afe760e01b5f9081526001600160a01b0391909116600452602490fd5b600114156126d856fe2f8788117e7eff1d82e926ec794901d17c78024a50270940304540a733656f0dffd144f74796eb0db7258745a419789cb58605f566e6791e15262d22eb38b5fdf6391f5c32d9c69d2a47ea670b442974b53935d1edc7fd64eb21e047a839171befb406cc0bce2ba74458cf504a1d6cc9424b2ff4c841f69cd1cfdcb1e32a8aef9495d03190a79a43e534c9e328ff322f6283261383f5f19c809564f6ad5a57b3733ca340b1c7221ce64b38878e6935f845e9e86b11dbf48dd3381c4deb01d94da26469706673582212209fc5c7b014eeb28f91a525ea5d4bc31a33e6768158f0d222133b0cbe583aba5564736f6c634300081c0033bd79b86ffe0ab8e8776151514217cd7cacd52c909f66475c3af44e129f0b00ffffd144f74796eb0db7258745a419789cb58605f566e6791e15262d22eb38b5fdf4c05651b21c0b5115a86aea17b8d2ecec6e23e9d6dc086e2b8c9c8e4cd7fefd","linkReferences":{}},"methodIdentifiers":{"DEFAULT_ADMIN_ROLE()":"a217fddf","accessType()":"b55ec18a","addNFTGate(address,uint8)":"8dbf15c6","currency()":"e5a6b10f","currencyHeldByJar()":"b8f8f425","depositCurrency(uint256)":"2f2d75a2","depositETH()":"f6326fb3","emergencyWithdrawCurrencyWithState(uint256)":"937424bf","emergencyWithdrawWithoutState(address,uint256)":"fbf6ae6f","emergencyWithdrawalEnabled()":"7fe4e8ee","feeCollector()":"c415b95c","feePercentageOnDeposit()":"3657b63c","fixedAmount()":"ffd34ad5","getNFTGatesArray()":"aadefb13","getRoleAdmin(bytes32)":"248a9ca3","getWithdrawalDataArray()":"7c343291","grantJarBlacklistRole(address[])":"9b76ea22","grantJarWhitelistRole(address[])":"1e6d8b10","grantRole(bytes32,address)":"2f2ff15d","hasRole(bytes32,address)":"91d14854","isWithdrawnByUser(address)":"6ba4573a","jarOwner()":"9f69ff60","lastWithdrawalNFT(bytes32)":"a24f8547","lastWithdrawalWhitelist(address)":"6812bfe3","maxWithdrawal()":"8c0ff5b7","minERC20Deposit()":"7997ca2c","minETHDeposit()":"5b6e245c","nftGates(uint256)":"61ac3e4c","oneTimeWithdrawal()":"156d4c9c","removeNFTGate(address)":"81fe98a2","renounceRole(bytes32,address)":"36568abe","revokeJarBlacklistRole(address[])":"b6b86bfb","revokeJarWhitelistRole(address[])":"d4958b14","revokeRole(bytes32,address)":"d547741f","strictPurpose()":"3df37c0b","supportsInterface(bytes4)":"01ffc9a7","transferJarOwnership(address)":"d359cd2d","updateFeeCollector(address)":"d2c35ce8","withdrawNFTMode(uint256,string,address,uint256)":"afad5406","withdrawWhitelistMode(uint256,string)":"6715140f","withdrawalData(uint256)":"f9304d96","withdrawalInterval()":"2f0c370e","withdrawalOption()":"3257bccb"},"id":57}